{"contracts/plonk_vk.sol":{"UltraVerifier":{"abi":[{"inputs":[],"name":"EC_SCALAR_MUL_FAILURE","type":"error"},{"inputs":[],"name":"MOD_EXP_FAILURE","type":"error"},{"inputs":[],"name":"PROOF_FAILURE","type":"error"},{"inputs":[{"internalType":"uint256","name":"expected","type":"uint256"},{"internalType":"uint256","name":"actual","type":"uint256"}],"name":"PUBLIC_INPUT_COUNT_INVALID","type":"error"},{"inputs":[],"name":"PUBLIC_INPUT_GE_P","type":"error"},{"inputs":[],"name":"PUBLIC_INPUT_INVALID_BN128_G1_POINT","type":"error"},{"inputs":[],"name":"getVerificationKeyHash","outputs":[{"internalType":"bytes32","name":"","type":"bytes32"}],"stateMutability":"pure","type":"function"},{"inputs":[{"internalType":"bytes","name":"_proof","type":"bytes"},{"internalType":"bytes32[]","name":"_publicInputs","type":"bytes32[]"}],"name":"verify","outputs":[{"internalType":"bool","name":"","type":"bool"}],"stateMutability":"view","type":"function"}],"evm":{"bytecode":{"linkReferences":{},"object":"608060405234801561001057600080fd5b50612de8806100206000396000f3fe608060405234801561001057600080fd5b50600436106100365760003560e01c8063937f6a101461003b578063ea50d0e41461006e575b600080fd5b6040517f016d9a7b9f7761920b0f34c761eb00fa37f6c06c1042814af76841db3c5316ad81526020015b60405180910390f35b61008161007c366004612ced565b610091565b6040519015158152602001610065565b6180006103805260036103a0527f2d1ba66f5941dc91017171fa69ec2bd0022a2a2d4115a009a93458fd4e26ecfb6103c0527f3063edaa444bddc677fcd515f614555a777997e0a9287d1e62bf6dd004d820016103e0527f202aaeda1a1516c78931c206c1545b8f68c1aa7dcdc41c9e50802fbb9618eb85610400527f12d7895327ebe34be0cf277886ac9f7c83068ffa57ac1a3c2776881324089b8b610420527f2626daff9d3fac3c8ff29cc8365ed56454f4f4bab8db41a14d627c8aa3c8da20610440527f2f9ab4e1c316b9a5210f0450c4128f97b15affe3989fdf2611e15b3843c43efb610460527f2d4950810b2649e316dc60c35e45b208af6182c42c8e3421759fc13f9356da5d610480527f2a644f62b3acc866356b728c5e66ec682e5ce9c18d28b864283c7965ded07bda6104a0527f2a131ca1eac535446021ac45ee68c292faba9f3969c1c91e05218d096a386bfe6104c0527f1de46ad8700a63cd0f2e94467673148cf73094bbad63be1e744af83d21c2fd4e6104e0527f2b54301bed89d8eca77842a33e7114589c1fc72aa922a4f50f9eea78ae15fe38610500527f05a37c467990b3e639074015516d55e8c6042f52bcba5cd07b31eecf576f1ee3610520527f0e73bb5131ea6e34ec5a648d94fad59c037f7bda69b3e152ab112771bc7ffa11610540527f05a71b46e37c9642c2c2b708f8ed2f02fe3db692b2418c9577262ce95978a7c5610560527f13a8294954bfab00c4e2e5725648b79efc90b49b61b3ae87d67b6d2158ac7af8610580527f2b6b8e4d43ab327e12ac47b6b3c0a388e9c311f87031817671605a8b5951a2736105a0527f173df533b7b5b34a2e729a123e2109ddba2ce35b27c0099ec32dd9551d4eb8dc6105c0527f052d2a4bc3f9fa6081e174fc6bb38f6c4df33d318870c3300f925db79f12e81f6105e0527f18011c8d4e2047581722cb8007681bccdf4e210d76bd21be279b200c7b9e6ae3610600527f1f8c01090586122baa40fa6ea67ba6d9d578f330a927132076033554a11a8704610620527f2f6de6b1cdf06648a5fd97e38df789bcb4f26452bc41097b8640c2bdd758d6a9610640527f158d9b7029d1fbad9e8c5584c85a07f20a50fe8d7ef47f0e26102dd399b2d369610660527f0bd4be6fd179d6ea96679ec291a2eab751ea34b0d2f4a82b64160c73b798e7cb610680527f07aefeecf5b8d111b6761c6856d08af9066db2873e45e010eaeb8132224a157b6106a0527f098a3f93359e407a507f6c02f77419b5013c321a19db680549efddd6e898c2e66106c0527f08a460315c22cf3a315a3a2034aa940c1104c73227fa44e82a4bdf4e7e7ff5376106e0527f16d417a3f323d535f16a4390c1167ed308612878e06aeae6618ebac00a932d41610700527f155e0c0a8790884c35d3e1bd2a0156dd1b29368b932a1edd049f8168d0475a43610720527f2cad1aff50d24fac63351c992e2c1c6f08a221858c31a6b93b1eeb5ff4345986610740527f05244b5256d4ae175e4481a147b691d35ef175967ff77514aa92382645405c4d610760527f14fa3d2f7838cd2b628013fbcc4a5964f90f86fee3c44f90f15b66cbb883b16d610780527f087cff60b464aea188316044a5bdd7ad11e09061a6bbb1538a16ea2043d818bb6107a0527f0edc0845445f3a9214ca8c4ce8bfd53897d91e27fc085631d7fb2a1225d3c40e6107c0527f30521fd3f90d6823143b31aa19fdb95c3622a2ebcfe40878a9b926f9bb5958706107e0527f030ac1cc92a28b967df7160de3f4bb3d18ea9b4e815b5c595a4cb7cae56db7c6610800527f2465a7e5d40cdae7124e40609f69a02cdbae4b8de36519517a574e2a2c8201fd610820527f0d3a5fd296b6cb7657205032d326c1126531247361cfb572fe626cdbc274fe6a610840527f2c76ae3fdcd620f284426dc5c68ba0a2c4b08dda0c3a6ccb925a93efdc34eeff610860527f272cf75f3946db3caa6727009b09309aa47f964e91a7a3a8da50d32e86e6341e610880527f0da622da8f6b0be315c8bf8cbcdb0689e44fbf75f444fa383b3097217ca82efb6108a0527f15b58e3eb2996f08c492bac2b59b1d78bc3b59383b7a81f5f3232d8135cd9b426108c0527e7cc3faa29c370aa887d30f5d808e54639d5451fdab5ead493e39f5c4866d4c6108e0527f1970a2e001ab27f02eed3e87423d2612783f012475883f5901331bc7858ed4cc610900527f14a6c7a05c29037d696e79a2deda0a921c09acad40940d6dc22b301c2a7678b1610920527f0b6e059990326ebd1ba7a8fef1241b2cc071c771d25a3b3c60cbb636b7b436be610940527f2593d28090129b0500b0d3b9f2c2542ed954fd071008215cbc48b82d7aa185e0610960527f2dd28f9bf290acb0db873d995f4f440291947faf2be9aa1017f75069600f2f4c610980527f1bda8c3bc0d7972d9c0010ec63786de0924ec7c8741edfae90234a6964989db06109a05260006109c08190526109e08190527f260e01b251f6f1c7e7ff4e580791dee8ea51d87a358e038b4efe30fac09383c1610a00527f0118c4d5b837bcc2bc89b5b398b5974e9f5944073b32078b7e231fec938883b0610a20527f04fc6369f7110fe3d25156c1bb9a72859cf2a04641f99ba4ee413c80da6a5fe4610a40527f22febda3c0c0632a56475b4214e5615e11e6dd3f96e6cea2854a87d4dacc5e55610a60527f05d33766e4590b3722701b6f2fa43d0dc3f028424d384e68c92a742fb2dbc0b4613400526103a05182811461089f576040517f7667dc9b000000000000000000000000000000000000000000000000000000008152600481018290526024810184905260440160405180910390fd5b7f30644e72e131a029b85045b68181585d97816a916871ca8d3c208c16d87cfd477f30644e72e131a029b85045b68181585d2833e84879b9709143e1f593f00000016024600435018281350661122052826020820135066112005282604082013506611260528260608201350661124052826080820135066112a0528260a082013506611280528260c0820135066112e0528260e0820135066112c05282610100820135066113205282610120820135066113005282610140820135066113605282610160820135066113405282610180820135066113a052826101a08201350661138052826101c0820135066113e052826101e0820135066113c05282610200820135066114205282610220820135066114005282610240820135066114605282610260820135066114405282610280820135066114a052826102a08201350661148052816102c08201350661160052816102e0820135066116205281610300820135066116405281610320820135066116605281610340820135066116805281610360820135066116a05281610380820135066116c052816103a0820135066116e052816103c08201350661170052816103e0820135066117205281610400820135066117405281610420820135066117605281610440820135066117805281610460820135066117a05281610480820135066117c052816104a0820135066117e052816104c08201350661180052816104e0820135066119605281610500820135066119805281610520820135066119a05281610540820135066119c052816105608201350661184052816105808201350661186052816105a08201350661188052816105c0820135066118a052816105e0820135066118c05281610600820135066118e05281610620820135066119005281610640820135066119205281610660820135066119405281610680820135066119e052816106a08201350661200052816106c08201350661202052816106e0820135066120405281610700820135066120605281610720820135066120805281610740820135066120a05281610760820135066120c05281610780820135066120e052816107a08201350661210052816107c08201350661212052826107e08201350661232052826108008201350661230052826108208201350661236052826108408201350661234052506109c05115610d1a576024803501806109e05160051b0190508035602082013560441b81019050604082013560881b81019050606082013560cc1b81019050608082013560a083013560441b8101905060c083013560881b8101905060e083013560cc1b8101905061010083013561012084013560441b8101905061014084013560881b8101905061016084013560cc1b810190506101808401356101a085013560441b810190506101c085013560881b810190506101e085013560cc1b810190508361350052826135205281613540528061356052868110878410168783108886101616610d14577feba9f4a60000000000000000000000000000000000000000000000000000000060005260046000fd5b50505050505b6103805160e01b6000526103a05160e01b60045260086000208061358052602480350160206103a05102808260206135800137600435602401915060c0826135a083013760e0016135802083810661266081905290925090508281800961268052828161268051096126a05250806000526112e0516020526112c051604052611320516060526113005160805260a0600020905081810661260052806000526001602053506021600090812082810661262052815261136051602052611340516040526113a0516060526113805160805260a09020818106612640819052828180096134205282816134205109613440528281613440510961346052806134805250806000526113e0516020526113c05160405261142051606052611400516080526114605160a0526114405160c0526114a05160e052611480516101005261012060002090508181066126c052806126e0525061260051612620516103c051600180856001602480350160206103a0510281018360058a0984600c8b0999505b81831015610eda57823585811085169450858a82089050858183018909975085818c01880996505084888209905084888b099950602083019250610e9b565b50505080610f0c577f374a972f0000000000000000000000000000000000000000000000000000000060005260046000fd5b50508161300052806130205250505050508081600161260051086126205109806103805160015b81811015610f48578483840992508001610f33565b5050613100528181800990508181820961312052506126c05161038051819060015b81811015610f7f578483840992508001610f6a565b50508061304052826001840382089050613400518084036103e051858286088684840992508687848808820990508684840992508687848808820990508687888686098808820990506103c051925086828609915086600188038708878485099450876001890389898b888d8b8c0909090896506130205194508493508782860994508488878709955085898388099650868a61312051890997508760206000526020805260206040528b8b8a0960605260028c036080528b60a0526020600060c0600060055afa611075577ff894a7bc0000000000000000000000000000000000000000000000000000000060005260046000fd5b60005198508b818a0990508b8b8a0998508b828a0991508b613120518a0998508b838a0992508b858a0998508b848a0993508b8a8a0998508b888a0997508b868a0998508b613020518d8b8c090998508b896130005109613060528b888b09613080528b848709613780528b8388096130a0528b826131005109613140528b8188096130c052505050505050505050505061264051506126005161262051828361190051840982611620510101846118e051850983611600510101098384611940518509836116605101018561192051860984611640510101098485868385096116a051096134805109858661198051870985611620510101876119605188098661160051010109925085866119c051870985611660510101876119a0518809866116405101010991508586878885870961208051096134805109870382089050856126405161348051096134805285868788613060518a0361208051086130c0510961348051098208905085612640516134805109613480528586878860018a036116a051086130a05109613480510982086136005250505050508061264051613480510961348052806117205161266051098182836120205161178051096116405108820890508161266051820990508182836120005161176051096116205108820890508161266051820990508182836119e0516117005109611600510882089050816118405183846126605161186051098586612680516118805109876126a0516118a05109080808826120c0518485612660516120e051098687612680516121005109886126a051612120510908080883846001612600510861262051098461262051866118c051870908935084818687612600518609860808925084838509935084856001612600510885099350846130a05161264051099250848385089350846116c0518509935084838603850893508481868761260051612060510961168051080892505050826130c05161342051098381850383089150836120a05183099150838461314051830983089150508261348051848386038508096136205250508061344051613480510961348052806116e0516116005109816117005161162051098261172051611640510983611740516116605109847f183227397098d014dc2822db40c0ac2e9419f4243cdcb848a1f0fac9f80000008687600389036117a0510888611760518a6116205161160051090909098586878889858a08880886088408611780510894505050505081828384856116605161160051086119e051870308611760510884600286036117a05108096126405109828384858685612040510887600189036117a051080985086117a05109613480510961364052505080613420516134805109613480526002810360038203826116005184036116205108836116205185036116405108846116405186036116605108856116605187036119e05108866134805188898888088a8b8b8a088c8a8e038e8c8d09080909099350868788612640516134805109898a8988088b8c8c8a088d8a8f038f8c8d090809090985089350868788613420516134805109898a8987088b8c8c89088d898f038f8b8c090809090985089350868788613440516134805109898a8986088b8c8c88088d888f038f8a8b090809090985089350505050836117c051820961366052505061346051613480518392500961348052806116205182036119e051088161204051612040510982611640516116405109836116e05185612040516116405109098485868384088785870888030886878788098889611620516119e0510861200051080908925050508261348051848561176051870360010884090990508261202051611640510883611640518503856116e05161204051090884858287611620518903612000510809868685090893505050828361264051613480510984856117605187036001088509099150826117e0518484840809613680525050806116205161162051098161164051611640510982611620518460118408098360048309915083600982099050836003840992508381850385848788611620516116205108612000510809089150508283846120205161164051088561164051611640510809840384856120005187036116205108850908915082613480518209905082836126405161348051098309915082611760518209905082611760518309915082836117e0518585850809613680510861368052505080613460516134805109613480528081611620516119e05109826120005161160051090881612020518303838461164051611620510985611660516116005109080882681000000000000000008209905082612040518403820890508282820890508261174051820990508268100000000000000000830991508283612000516119e05109830891508261172051848561166051611640510886038508098361176051858661204051612020510887038761166051880808099250836117005185858786860808096136c0525050612000518291506140009009816119e0518208905081614000820990508161164051820890508161400082099050816116205182089050816140008209905081611600518208905081611660518303820890508161174051820990508161400061202051098261200051820890508261400082099050826119e05182089050826140008209905082611660518208905082614000820990508261164051820890508261204051840382089050826117605182099050826117205184838508096136e0525050806126605161164051098161162051820890508161266051820990508161160051820890508161266051820990508161178051820890508082611660518403830891508161374052826116005184036119e05108836116605185036120405108848560018703840883098586848803600108830991508585876126405189858b61264051890908090861372052856126605161202051099450856120005186089450856126605186099450856119e0518608945085612660518609945085858703612040510894508561164051870361202051089150858687878903600108840987858903600108099150858487036116605108868760018903830882099050868760018903880887099550866126405184099250868284089250866126405184099250868684089250866126405184099250868184089250508161370052505083611620518503612000510892508361164051850385868488036001088609089250836117005161372051099150838461174051850983089150838461176051613740510983089150836116e0518309915083846117a051613700510983089150836136c05183089250836136e05184089250836118005184099250836134805184099250826136a05283613440516134805109613480525050508061378051826136a0518461368051866136605188613640518a61362051613600510808080808096137608190526126e0516137a08190526137c0919091526102e460043501610520816137e03750506105606137a020818106612700526000819052600160205381602160002006612720526002602053816021600020066127405260036020538160216000200661276052600460205381602160002006612780526005602053816021600020066127a0526006602053816021600020066127c0526007602053816021600020066127e0526008602053816021600020066128005260096020538160216000200661282052600a6020538160216000200661284052600b6020538160216000200661286052600c6020538160216000200661288052600d602053816021600020066128a052600e602053816021600020066128c052600f602053816021600020066128e05260106020538160216000200661290052601160205381602160002006612920526012602053816021600020066129405260136020538160216000200661296052601460205381602160002006612980526015602053816021600020066129a0526016602053816021600020066129c0526017602053816021600020066129e052601860205381602160002006612a0052601960205381602160002006612a2052601a60205381602160002006612a4052601b60205381602160002006612a6052601c60205381602160002006612a8052601d60205381602160002006612aa052601d6020535060216000908120828106612ac05281526123205160205261230051604052612360516060526123405160805260a08120829006612b00526113c0516113e0518482800985600387838609088683840914935050816131605280602061316001525050611400516114205184828309856003878386090886838409148416935050816000528060205250506130405160405260406131a06060600060075afa16604061316060808160065afa81169050611440516114605184828309856003878386090886838409148416935050816000528060205250508161304051613040510960405260406131a06060600060075afa16604061316060808160065afa81169050611480516114a05184828309856003878386090886838409148416935050816000528060205250508161304051836130405161304051090960405260406131a06060600060075afa16604061316060808160065afa81169050611200516112205184828309856003878386090886838409148416935050816000528060205250508161270051836001612b0051080960405260406131a06060600060075afa16604061316060808160065afa81169050611240516112605184828309856003878386090886838409148416935050816000528060205250508161272051836001612b0051080960405260406131a06060600060075afa16604061316060808160065afa81169050611280516112a05184828309856003878386090886838409148416935050816000528060205250508161274051836001612b0051080960405260406131a06060600060075afa16604061316060808160065afa811690506112c0516112e05184828309856003878386090886838409148416935050816000528060205250508161276051836001612b0051080960405260406131a06060600060075afa16604061316060808160065afa81169050611300516113205184828309856003878386090886838409148416935050816000528060205250508161278051836001612b0051080960405260406131a06060600060075afa16604061316060808160065afa8116905061134051611360518482830985600387838609088683840914841693505081600052806020525050816127a051836001612b0051080960405260406131a06060600060075afa16604061316060808160065afa81169050611380516113a0518482830985600387838609088683840914841693505081600052806020525050816127c051836001612b0051080960405260406131a06060600060075afa16604061316060808160065afa81169050610400516104205184828309856003878386090886838409148416935050816000528060205250506127e05160405260406131a06060600060075afa16604061316060808160065afa81169050610440516104605184828309856003878386090886838409148416935050816000528060205250506128005160405260406131a06060600060075afa16604061316060808160065afa81169050610480516104a05184828309856003878386090886838409148416935050816000528060205250506128205160405260406131a06060600060075afa16604061316060808160065afa811690506104c0516104e05184828309856003878386090886838409148416935050816000528060205250506128405160405260406131a06060600060075afa16604061316060808160065afa81169050610500516105205184828309856003878386090886838409148416935050816000528060205250506128605160405260406131a06060600060075afa16604061316060808160065afa81169050610540516105605184828309856003878386090886838409148416935050816000528060205250506128805160405260406131a06060600060075afa16604061316060808160065afa81169050610580516105a05184828309856003878386090886838409148416935050816000528060205250506128a05160405260406131a06060600060075afa16604061316060808160065afa811690506105c0516105e05184828309856003878386090886838409148416935050816000528060205250506128c05160405260406131a06060600060075afa16604061316060808160065afa81169050610600516106205184828309856003878386090886838409148416935050816000528060205250506128e05160405260406131a06060600060075afa16604061316060808160065afa81169050610640516106605184828309856003878386090886838409148416935050816000528060205250506129005160405260406131a06060600060075afa16604061316060808160065afa81169050610680516106a05184828309856003878386090886838409148416935050816000528060205250506129205160405260406131a06060600060075afa16604061316060808160065afa811690506106c0516106e05184828309856003878386090886838409148416935050816000528060205250506129405160405260406131a06060600060075afa16604061316060808160065afa81169050610700516107205184828309856003878386090886838409148416935050816000528060205250506129605160405260406131a06060600060075afa16604061316060808160065afa81169050610740516107605184828309856003878386090886838409148416935050816000528060205250506129805160405260406131a06060600060075afa16604061316060808160065afa81169050610780516107a0518482830985600387838609088683840914841693505081600052806020525050816129a051836001612b0051080960405260406131a06060600060075afa16604061316060808160065afa811690506107c0516107e0518482830985600387838609088683840914841693505081600052806020525050816129c051836001612b0051080960405260406131a06060600060075afa16604061316060808160065afa8116905061080051610820518482830985600387838609088683840914841693505081600052806020525050816129e051836001612b0051080960405260406131a06060600060075afa16604061316060808160065afa811690506108405161086051848283098560038783860908868384091484169350508160005280602052505081612a0051836001612b0051080960405260406131a06060600060075afa16604061316060808160065afa81169050610880516108a0518482830985600387838609088683840914841693505081600052806020525050612a205160405260406131a06060600060075afa16604061316060808160065afa811690506108c0516108e0518482830985600387838609088683840914841693505081600052806020525050612a405160405260406131a06060600060075afa16604061316060808160065afa8116905061090051610920518482830985600387838609088683840914841693505081600052806020525050612a605160405260406131a06060600060075afa16604061316060808160065afa8116905061094051610960518482830985600387838609088683840914841693505081600052806020525050612a805160405260406131a06060600060075afa16604061316060808160065afa81169050610980516109a0518482830985600387838609088683840914841693505081600052806020525050612aa05160405260406131a06060600060075afa16604061316060808160065afa8116905081826116005184612b00516119e051090861270051098283846116205186612b00516120005109086127205109820890508283846116405186612b00516120205109086127405109820890508283846116605186612b00516120405109086127605109820890508283846116805186612b00516120605109086127805109820890508283846116a05186612b00516120805109086127a05109820890508283846116c05186612b00516120a05109086127c051098208905082836116e0516127e051098208905082836117005161280051098208905082836117205161282051098208905082836117405161284051098208905082836117605161286051098208905082836117805161288051098208905082836117a0516128a051098208905082836117c0516128c051098208905082836117e0516128e051098208905082836118005161290051098208905082836119605161292051098208905082836119805161294051098208905082836119a05161296051098208905082836119c0516129805109820890508283846118405186612b00516120c05109086129a05109820890508283846118605186612b00516120e05109086129c05109820890508283846118805186612b00516121005109086129e05109820890508283846118a05186612b0051612120510908612a0051098208905082836118c051612a2051098208905082836118e051612a40510982089050828361190051612a60510982089050828361192051612a80510982089050828361194051612aa0510982089050826137605182089050600160005260026020528083036040525060406131a06060600060075afa16604061316060808160065afa16613360819052612b00516126c05161230051612320518682800987600389838609088883840914955050816000528060205250508060405260406131a06060600060075afa831692506040613160608061316060065afa8316925061234051612360518682830987600389838609088883840914861695505081600052806020525050836103c05185838509096040525060406131a06060600060075afa821691506040613220608061316060065afa8216915061230051600052612320516020526123405160405261236051606052806080526040806060604060075afa8216915060406131e06080600060065afa82169150613200518403613200526109c05115612b825761350051613520518582830986600388838609088783840914851694505081600052806020525050828182096040526040606080600060075afa8216915061354051613560518582830986600388838609088783840914851694505081600052806020525050604060006060600060075afa821691506132205160a0526132405160c05260406132206080606060065afa821691506131e0516040526132005160605260406131e06080600060065afa821691505b5080612bb2577ff755f3690000000000000000000000000000000000000000000000000000000060005260046000fd5b806133805261322051600052613240516020527f198e9393920d483a7260bfb731fb5d25f1aa493335a9e71297e485b7aef312c26040527f1800deef121f1e76426a00665e5c4479674322d4f75edadd46debd5cd992f6ed6060527f090689d0585ff075ec9e99ad690c3395bc4b313370b38ef355acdadcd122975b6080527f12c85ea5db8c6deb4aab71808dcb408fe3d1e7690c43d37b4ce6cc0166fa7daa60a0526131e05160c0526132005160e052610a005161010052610a205161012052610a405161014052610a60516101605260206000610180600060085afa9050806133a0526000516133c05250505061336051613380516133c0516133a051161616612ce2577f0711fcec0000000000000000000000000000000000000000000000000000000060005260046000fd5b600160005260206000f35b60008060008060408587031215612d0357600080fd5b843567ffffffffffffffff80821115612d1b57600080fd5b818701915087601f830112612d2f57600080fd5b813581811115612d3e57600080fd5b886020828501011115612d5057600080fd5b602092830196509450908601359080821115612d6b57600080fd5b818701915087601f830112612d7f57600080fd5b813581811115612d8e57600080fd5b8860208260051b8501011115612da357600080fd5b9598949750506020019450505056fea2646970667358221220c8d92cb1cc3109f7acc48b7b20847c6567cc59992574456d666b580d9c79d52c64736f6c63430008130033","opcodes":"PUSH1 0x80 PUSH1 0x40 MSTORE CALLVALUE DUP1 ISZERO PUSH2 0x10 JUMPI PUSH1 0x0 DUP1 REVERT JUMPDEST POP PUSH2 0x2DE8 DUP1 PUSH2 0x20 PUSH1 0x0 CODECOPY PUSH1 0x0 RETURN INVALID PUSH1 0x80 PUSH1 0x40 MSTORE CALLVALUE DUP1 ISZERO PUSH2 0x10 JUMPI PUSH1 0x0 DUP1 REVERT JUMPDEST POP PUSH1 0x4 CALLDATASIZE LT PUSH2 0x36 JUMPI PUSH1 0x0 CALLDATALOAD PUSH1 0xE0 SHR DUP1 PUSH4 0x937F6A10 EQ PUSH2 0x3B JUMPI DUP1 PUSH4 0xEA50D0E4 EQ PUSH2 0x6E JUMPI JUMPDEST PUSH1 0x0 DUP1 REVERT JUMPDEST PUSH1 0x40 MLOAD PUSH32 0x16D9A7B9F7761920B0F34C761EB00FA37F6C06C1042814AF76841DB3C5316AD DUP2 MSTORE PUSH1 0x20 ADD JUMPDEST PUSH1 0x40 MLOAD DUP1 SWAP2 SUB SWAP1 RETURN JUMPDEST PUSH2 0x81 PUSH2 0x7C CALLDATASIZE PUSH1 0x4 PUSH2 0x2CED JUMP JUMPDEST PUSH2 0x91 JUMP JUMPDEST PUSH1 0x40 MLOAD SWAP1 ISZERO ISZERO DUP2 MSTORE PUSH1 0x20 ADD PUSH2 0x65 JUMP JUMPDEST PUSH2 0x8000 PUSH2 0x380 MSTORE PUSH1 0x3 PUSH2 0x3A0 MSTORE PUSH32 0x2D1BA66F5941DC91017171FA69EC2BD0022A2A2D4115A009A93458FD4E26ECFB PUSH2 0x3C0 MSTORE PUSH32 0x3063EDAA444BDDC677FCD515F614555A777997E0A9287D1E62BF6DD004D82001 PUSH2 0x3E0 MSTORE PUSH32 0x202AAEDA1A1516C78931C206C1545B8F68C1AA7DCDC41C9E50802FBB9618EB85 PUSH2 0x400 MSTORE PUSH32 0x12D7895327EBE34BE0CF277886AC9F7C83068FFA57AC1A3C2776881324089B8B PUSH2 0x420 MSTORE PUSH32 0x2626DAFF9D3FAC3C8FF29CC8365ED56454F4F4BAB8DB41A14D627C8AA3C8DA20 PUSH2 0x440 MSTORE PUSH32 0x2F9AB4E1C316B9A5210F0450C4128F97B15AFFE3989FDF2611E15B3843C43EFB PUSH2 0x460 MSTORE PUSH32 0x2D4950810B2649E316DC60C35E45B208AF6182C42C8E3421759FC13F9356DA5D PUSH2 0x480 MSTORE PUSH32 0x2A644F62B3ACC866356B728C5E66EC682E5CE9C18D28B864283C7965DED07BDA PUSH2 0x4A0 MSTORE PUSH32 0x2A131CA1EAC535446021AC45EE68C292FABA9F3969C1C91E05218D096A386BFE PUSH2 0x4C0 MSTORE PUSH32 0x1DE46AD8700A63CD0F2E94467673148CF73094BBAD63BE1E744AF83D21C2FD4E PUSH2 0x4E0 MSTORE PUSH32 0x2B54301BED89D8ECA77842A33E7114589C1FC72AA922A4F50F9EEA78AE15FE38 PUSH2 0x500 MSTORE PUSH32 0x5A37C467990B3E639074015516D55E8C6042F52BCBA5CD07B31EECF576F1EE3 PUSH2 0x520 MSTORE PUSH32 0xE73BB5131EA6E34EC5A648D94FAD59C037F7BDA69B3E152AB112771BC7FFA11 PUSH2 0x540 MSTORE PUSH32 0x5A71B46E37C9642C2C2B708F8ED2F02FE3DB692B2418C9577262CE95978A7C5 PUSH2 0x560 MSTORE PUSH32 0x13A8294954BFAB00C4E2E5725648B79EFC90B49B61B3AE87D67B6D2158AC7AF8 PUSH2 0x580 MSTORE PUSH32 0x2B6B8E4D43AB327E12AC47B6B3C0A388E9C311F87031817671605A8B5951A273 PUSH2 0x5A0 MSTORE PUSH32 0x173DF533B7B5B34A2E729A123E2109DDBA2CE35B27C0099EC32DD9551D4EB8DC PUSH2 0x5C0 MSTORE PUSH32 0x52D2A4BC3F9FA6081E174FC6BB38F6C4DF33D318870C3300F925DB79F12E81F PUSH2 0x5E0 MSTORE PUSH32 0x18011C8D4E2047581722CB8007681BCCDF4E210D76BD21BE279B200C7B9E6AE3 PUSH2 0x600 MSTORE PUSH32 0x1F8C01090586122BAA40FA6EA67BA6D9D578F330A927132076033554A11A8704 PUSH2 0x620 MSTORE PUSH32 0x2F6DE6B1CDF06648A5FD97E38DF789BCB4F26452BC41097B8640C2BDD758D6A9 PUSH2 0x640 MSTORE PUSH32 0x158D9B7029D1FBAD9E8C5584C85A07F20A50FE8D7EF47F0E26102DD399B2D369 PUSH2 0x660 MSTORE PUSH32 0xBD4BE6FD179D6EA96679EC291A2EAB751EA34B0D2F4A82B64160C73B798E7CB PUSH2 0x680 MSTORE PUSH32 0x7AEFEECF5B8D111B6761C6856D08AF9066DB2873E45E010EAEB8132224A157B PUSH2 0x6A0 MSTORE PUSH32 0x98A3F93359E407A507F6C02F77419B5013C321A19DB680549EFDDD6E898C2E6 PUSH2 0x6C0 MSTORE PUSH32 0x8A460315C22CF3A315A3A2034AA940C1104C73227FA44E82A4BDF4E7E7FF537 PUSH2 0x6E0 MSTORE PUSH32 0x16D417A3F323D535F16A4390C1167ED308612878E06AEAE6618EBAC00A932D41 PUSH2 0x700 MSTORE PUSH32 0x155E0C0A8790884C35D3E1BD2A0156DD1B29368B932A1EDD049F8168D0475A43 PUSH2 0x720 MSTORE PUSH32 0x2CAD1AFF50D24FAC63351C992E2C1C6F08A221858C31A6B93B1EEB5FF4345986 PUSH2 0x740 MSTORE PUSH32 0x5244B5256D4AE175E4481A147B691D35EF175967FF77514AA92382645405C4D PUSH2 0x760 MSTORE PUSH32 0x14FA3D2F7838CD2B628013FBCC4A5964F90F86FEE3C44F90F15B66CBB883B16D PUSH2 0x780 MSTORE PUSH32 0x87CFF60B464AEA188316044A5BDD7AD11E09061A6BBB1538A16EA2043D818BB PUSH2 0x7A0 MSTORE PUSH32 0xEDC0845445F3A9214CA8C4CE8BFD53897D91E27FC085631D7FB2A1225D3C40E PUSH2 0x7C0 MSTORE PUSH32 0x30521FD3F90D6823143B31AA19FDB95C3622A2EBCFE40878A9B926F9BB595870 PUSH2 0x7E0 MSTORE PUSH32 0x30AC1CC92A28B967DF7160DE3F4BB3D18EA9B4E815B5C595A4CB7CAE56DB7C6 PUSH2 0x800 MSTORE PUSH32 0x2465A7E5D40CDAE7124E40609F69A02CDBAE4B8DE36519517A574E2A2C8201FD PUSH2 0x820 MSTORE PUSH32 0xD3A5FD296B6CB7657205032D326C1126531247361CFB572FE626CDBC274FE6A PUSH2 0x840 MSTORE PUSH32 0x2C76AE3FDCD620F284426DC5C68BA0A2C4B08DDA0C3A6CCB925A93EFDC34EEFF PUSH2 0x860 MSTORE PUSH32 0x272CF75F3946DB3CAA6727009B09309AA47F964E91A7A3A8DA50D32E86E6341E PUSH2 0x880 MSTORE PUSH32 0xDA622DA8F6B0BE315C8BF8CBCDB0689E44FBF75F444FA383B3097217CA82EFB PUSH2 0x8A0 MSTORE PUSH32 0x15B58E3EB2996F08C492BAC2B59B1D78BC3B59383B7A81F5F3232D8135CD9B42 PUSH2 0x8C0 MSTORE PUSH31 0x7CC3FAA29C370AA887D30F5D808E54639D5451FDAB5EAD493E39F5C4866D4C PUSH2 0x8E0 MSTORE PUSH32 0x1970A2E001AB27F02EED3E87423D2612783F012475883F5901331BC7858ED4CC PUSH2 0x900 MSTORE PUSH32 0x14A6C7A05C29037D696E79A2DEDA0A921C09ACAD40940D6DC22B301C2A7678B1 PUSH2 0x920 MSTORE PUSH32 0xB6E059990326EBD1BA7A8FEF1241B2CC071C771D25A3B3C60CBB636B7B436BE PUSH2 0x940 MSTORE PUSH32 0x2593D28090129B0500B0D3B9F2C2542ED954FD071008215CBC48B82D7AA185E0 PUSH2 0x960 MSTORE PUSH32 0x2DD28F9BF290ACB0DB873D995F4F440291947FAF2BE9AA1017F75069600F2F4C PUSH2 0x980 MSTORE PUSH32 0x1BDA8C3BC0D7972D9C0010EC63786DE0924EC7C8741EDFAE90234A6964989DB0 PUSH2 0x9A0 MSTORE PUSH1 0x0 PUSH2 0x9C0 DUP2 SWAP1 MSTORE PUSH2 0x9E0 DUP2 SWAP1 MSTORE PUSH32 0x260E01B251F6F1C7E7FF4E580791DEE8EA51D87A358E038B4EFE30FAC09383C1 PUSH2 0xA00 MSTORE PUSH32 0x118C4D5B837BCC2BC89B5B398B5974E9F5944073B32078B7E231FEC938883B0 PUSH2 0xA20 MSTORE PUSH32 0x4FC6369F7110FE3D25156C1BB9A72859CF2A04641F99BA4EE413C80DA6A5FE4 PUSH2 0xA40 MSTORE PUSH32 0x22FEBDA3C0C0632A56475B4214E5615E11E6DD3F96E6CEA2854A87D4DACC5E55 PUSH2 0xA60 MSTORE PUSH32 0x5D33766E4590B3722701B6F2FA43D0DC3F028424D384E68C92A742FB2DBC0B4 PUSH2 0x3400 MSTORE PUSH2 0x3A0 MLOAD DUP3 DUP2 EQ PUSH2 0x89F JUMPI PUSH1 0x40 MLOAD PUSH32 0x7667DC9B00000000000000000000000000000000000000000000000000000000 DUP2 MSTORE PUSH1 0x4 DUP2 ADD DUP3 SWAP1 MSTORE PUSH1 0x24 DUP2 ADD DUP5 SWAP1 MSTORE PUSH1 0x44 ADD PUSH1 0x40 MLOAD DUP1 SWAP2 SUB SWAP1 REVERT JUMPDEST PUSH32 0x30644E72E131A029B85045B68181585D97816A916871CA8D3C208C16D87CFD47 PUSH32 0x30644E72E131A029B85045B68181585D2833E84879B9709143E1F593F0000001 PUSH1 0x24 PUSH1 0x4 CALLDATALOAD ADD DUP3 DUP2 CALLDATALOAD MOD PUSH2 0x1220 MSTORE DUP3 PUSH1 0x20 DUP3 ADD CALLDATALOAD MOD PUSH2 0x1200 MSTORE DUP3 PUSH1 0x40 DUP3 ADD CALLDATALOAD MOD PUSH2 0x1260 MSTORE DUP3 PUSH1 0x60 DUP3 ADD CALLDATALOAD MOD PUSH2 0x1240 MSTORE DUP3 PUSH1 0x80 DUP3 ADD CALLDATALOAD MOD PUSH2 0x12A0 MSTORE DUP3 PUSH1 0xA0 DUP3 ADD CALLDATALOAD MOD PUSH2 0x1280 MSTORE DUP3 PUSH1 0xC0 DUP3 ADD CALLDATALOAD MOD PUSH2 0x12E0 MSTORE DUP3 PUSH1 0xE0 DUP3 ADD CALLDATALOAD MOD PUSH2 0x12C0 MSTORE DUP3 PUSH2 0x100 DUP3 ADD CALLDATALOAD MOD PUSH2 0x1320 MSTORE DUP3 PUSH2 0x120 DUP3 ADD CALLDATALOAD MOD PUSH2 0x1300 MSTORE DUP3 PUSH2 0x140 DUP3 ADD CALLDATALOAD MOD PUSH2 0x1360 MSTORE DUP3 PUSH2 0x160 DUP3 ADD CALLDATALOAD MOD PUSH2 0x1340 MSTORE DUP3 PUSH2 0x180 DUP3 ADD CALLDATALOAD MOD PUSH2 0x13A0 MSTORE DUP3 PUSH2 0x1A0 DUP3 ADD CALLDATALOAD MOD PUSH2 0x1380 MSTORE DUP3 PUSH2 0x1C0 DUP3 ADD CALLDATALOAD MOD PUSH2 0x13E0 MSTORE DUP3 PUSH2 0x1E0 DUP3 ADD CALLDATALOAD MOD PUSH2 0x13C0 MSTORE DUP3 PUSH2 0x200 DUP3 ADD CALLDATALOAD MOD PUSH2 0x1420 MSTORE DUP3 PUSH2 0x220 DUP3 ADD CALLDATALOAD MOD PUSH2 0x1400 MSTORE DUP3 PUSH2 0x240 DUP3 ADD CALLDATALOAD MOD PUSH2 0x1460 MSTORE DUP3 PUSH2 0x260 DUP3 ADD CALLDATALOAD MOD PUSH2 0x1440 MSTORE DUP3 PUSH2 0x280 DUP3 ADD CALLDATALOAD MOD PUSH2 0x14A0 MSTORE DUP3 PUSH2 0x2A0 DUP3 ADD CALLDATALOAD MOD PUSH2 0x1480 MSTORE DUP2 PUSH2 0x2C0 DUP3 ADD CALLDATALOAD MOD PUSH2 0x1600 MSTORE DUP2 PUSH2 0x2E0 DUP3 ADD CALLDATALOAD MOD PUSH2 0x1620 MSTORE DUP2 PUSH2 0x300 DUP3 ADD CALLDATALOAD MOD PUSH2 0x1640 MSTORE DUP2 PUSH2 0x320 DUP3 ADD CALLDATALOAD MOD PUSH2 0x1660 MSTORE DUP2 PUSH2 0x340 DUP3 ADD CALLDATALOAD MOD PUSH2 0x1680 MSTORE DUP2 PUSH2 0x360 DUP3 ADD CALLDATALOAD MOD PUSH2 0x16A0 MSTORE DUP2 PUSH2 0x380 DUP3 ADD CALLDATALOAD MOD PUSH2 0x16C0 MSTORE DUP2 PUSH2 0x3A0 DUP3 ADD CALLDATALOAD MOD PUSH2 0x16E0 MSTORE DUP2 PUSH2 0x3C0 DUP3 ADD CALLDATALOAD MOD PUSH2 0x1700 MSTORE DUP2 PUSH2 0x3E0 DUP3 ADD CALLDATALOAD MOD PUSH2 0x1720 MSTORE DUP2 PUSH2 0x400 DUP3 ADD CALLDATALOAD MOD PUSH2 0x1740 MSTORE DUP2 PUSH2 0x420 DUP3 ADD CALLDATALOAD MOD PUSH2 0x1760 MSTORE DUP2 PUSH2 0x440 DUP3 ADD CALLDATALOAD MOD PUSH2 0x1780 MSTORE DUP2 PUSH2 0x460 DUP3 ADD CALLDATALOAD MOD PUSH2 0x17A0 MSTORE DUP2 PUSH2 0x480 DUP3 ADD CALLDATALOAD MOD PUSH2 0x17C0 MSTORE DUP2 PUSH2 0x4A0 DUP3 ADD CALLDATALOAD MOD PUSH2 0x17E0 MSTORE DUP2 PUSH2 0x4C0 DUP3 ADD CALLDATALOAD MOD PUSH2 0x1800 MSTORE DUP2 PUSH2 0x4E0 DUP3 ADD CALLDATALOAD MOD PUSH2 0x1960 MSTORE DUP2 PUSH2 0x500 DUP3 ADD CALLDATALOAD MOD PUSH2 0x1980 MSTORE DUP2 PUSH2 0x520 DUP3 ADD CALLDATALOAD MOD PUSH2 0x19A0 MSTORE DUP2 PUSH2 0x540 DUP3 ADD CALLDATALOAD MOD PUSH2 0x19C0 MSTORE DUP2 PUSH2 0x560 DUP3 ADD CALLDATALOAD MOD PUSH2 0x1840 MSTORE DUP2 PUSH2 0x580 DUP3 ADD CALLDATALOAD MOD PUSH2 0x1860 MSTORE DUP2 PUSH2 0x5A0 DUP3 ADD CALLDATALOAD MOD PUSH2 0x1880 MSTORE DUP2 PUSH2 0x5C0 DUP3 ADD CALLDATALOAD MOD PUSH2 0x18A0 MSTORE DUP2 PUSH2 0x5E0 DUP3 ADD CALLDATALOAD MOD PUSH2 0x18C0 MSTORE DUP2 PUSH2 0x600 DUP3 ADD CALLDATALOAD MOD PUSH2 0x18E0 MSTORE DUP2 PUSH2 0x620 DUP3 ADD CALLDATALOAD MOD PUSH2 0x1900 MSTORE DUP2 PUSH2 0x640 DUP3 ADD CALLDATALOAD MOD PUSH2 0x1920 MSTORE DUP2 PUSH2 0x660 DUP3 ADD CALLDATALOAD MOD PUSH2 0x1940 MSTORE DUP2 PUSH2 0x680 DUP3 ADD CALLDATALOAD MOD PUSH2 0x19E0 MSTORE DUP2 PUSH2 0x6A0 DUP3 ADD CALLDATALOAD MOD PUSH2 0x2000 MSTORE DUP2 PUSH2 0x6C0 DUP3 ADD CALLDATALOAD MOD PUSH2 0x2020 MSTORE DUP2 PUSH2 0x6E0 DUP3 ADD CALLDATALOAD MOD PUSH2 0x2040 MSTORE DUP2 PUSH2 0x700 DUP3 ADD CALLDATALOAD MOD PUSH2 0x2060 MSTORE DUP2 PUSH2 0x720 DUP3 ADD CALLDATALOAD MOD PUSH2 0x2080 MSTORE DUP2 PUSH2 0x740 DUP3 ADD CALLDATALOAD MOD PUSH2 0x20A0 MSTORE DUP2 PUSH2 0x760 DUP3 ADD CALLDATALOAD MOD PUSH2 0x20C0 MSTORE DUP2 PUSH2 0x780 DUP3 ADD CALLDATALOAD MOD PUSH2 0x20E0 MSTORE DUP2 PUSH2 0x7A0 DUP3 ADD CALLDATALOAD MOD PUSH2 0x2100 MSTORE DUP2 PUSH2 0x7C0 DUP3 ADD CALLDATALOAD MOD PUSH2 0x2120 MSTORE DUP3 PUSH2 0x7E0 DUP3 ADD CALLDATALOAD MOD PUSH2 0x2320 MSTORE DUP3 PUSH2 0x800 DUP3 ADD CALLDATALOAD MOD PUSH2 0x2300 MSTORE DUP3 PUSH2 0x820 DUP3 ADD CALLDATALOAD MOD PUSH2 0x2360 MSTORE DUP3 PUSH2 0x840 DUP3 ADD CALLDATALOAD MOD PUSH2 0x2340 MSTORE POP PUSH2 0x9C0 MLOAD ISZERO PUSH2 0xD1A JUMPI PUSH1 0x24 DUP1 CALLDATALOAD ADD DUP1 PUSH2 0x9E0 MLOAD PUSH1 0x5 SHL ADD SWAP1 POP DUP1 CALLDATALOAD PUSH1 0x20 DUP3 ADD CALLDATALOAD PUSH1 0x44 SHL DUP2 ADD SWAP1 POP PUSH1 0x40 DUP3 ADD CALLDATALOAD PUSH1 0x88 SHL DUP2 ADD SWAP1 POP PUSH1 0x60 DUP3 ADD CALLDATALOAD PUSH1 0xCC SHL DUP2 ADD SWAP1 POP PUSH1 0x80 DUP3 ADD CALLDATALOAD PUSH1 0xA0 DUP4 ADD CALLDATALOAD PUSH1 0x44 SHL DUP2 ADD SWAP1 POP PUSH1 0xC0 DUP4 ADD CALLDATALOAD PUSH1 0x88 SHL DUP2 ADD SWAP1 POP PUSH1 0xE0 DUP4 ADD CALLDATALOAD PUSH1 0xCC SHL DUP2 ADD SWAP1 POP PUSH2 0x100 DUP4 ADD CALLDATALOAD PUSH2 0x120 DUP5 ADD CALLDATALOAD PUSH1 0x44 SHL DUP2 ADD SWAP1 POP PUSH2 0x140 DUP5 ADD CALLDATALOAD PUSH1 0x88 SHL DUP2 ADD SWAP1 POP PUSH2 0x160 DUP5 ADD CALLDATALOAD PUSH1 0xCC SHL DUP2 ADD SWAP1 POP PUSH2 0x180 DUP5 ADD CALLDATALOAD PUSH2 0x1A0 DUP6 ADD CALLDATALOAD PUSH1 0x44 SHL DUP2 ADD SWAP1 POP PUSH2 0x1C0 DUP6 ADD CALLDATALOAD PUSH1 0x88 SHL DUP2 ADD SWAP1 POP PUSH2 0x1E0 DUP6 ADD CALLDATALOAD PUSH1 0xCC SHL DUP2 ADD SWAP1 POP DUP4 PUSH2 0x3500 MSTORE DUP3 PUSH2 0x3520 MSTORE DUP2 PUSH2 0x3540 MSTORE DUP1 PUSH2 0x3560 MSTORE DUP7 DUP2 LT DUP8 DUP5 LT AND DUP8 DUP4 LT DUP9 DUP7 LT AND AND PUSH2 0xD14 JUMPI PUSH32 0xEBA9F4A600000000000000000000000000000000000000000000000000000000 PUSH1 0x0 MSTORE PUSH1 0x4 PUSH1 0x0 REVERT JUMPDEST POP POP POP POP POP JUMPDEST PUSH2 0x380 MLOAD PUSH1 0xE0 SHL PUSH1 0x0 MSTORE PUSH2 0x3A0 MLOAD PUSH1 0xE0 SHL PUSH1 0x4 MSTORE PUSH1 0x8 PUSH1 0x0 KECCAK256 DUP1 PUSH2 0x3580 MSTORE PUSH1 0x24 DUP1 CALLDATALOAD ADD PUSH1 0x20 PUSH2 0x3A0 MLOAD MUL DUP1 DUP3 PUSH1 0x20 PUSH2 0x3580 ADD CALLDATACOPY PUSH1 0x4 CALLDATALOAD PUSH1 0x24 ADD SWAP2 POP PUSH1 0xC0 DUP3 PUSH2 0x35A0 DUP4 ADD CALLDATACOPY PUSH1 0xE0 ADD PUSH2 0x3580 KECCAK256 DUP4 DUP2 MOD PUSH2 0x2660 DUP2 SWAP1 MSTORE SWAP1 SWAP3 POP SWAP1 POP DUP3 DUP2 DUP1 MULMOD PUSH2 0x2680 MSTORE DUP3 DUP2 PUSH2 0x2680 MLOAD MULMOD PUSH2 0x26A0 MSTORE POP DUP1 PUSH1 0x0 MSTORE PUSH2 0x12E0 MLOAD PUSH1 0x20 MSTORE PUSH2 0x12C0 MLOAD PUSH1 0x40 MSTORE PUSH2 0x1320 MLOAD PUSH1 0x60 MSTORE PUSH2 0x1300 MLOAD PUSH1 0x80 MSTORE PUSH1 0xA0 PUSH1 0x0 KECCAK256 SWAP1 POP DUP2 DUP2 MOD PUSH2 0x2600 MSTORE DUP1 PUSH1 0x0 MSTORE PUSH1 0x1 PUSH1 0x20 MSTORE8 POP PUSH1 0x21 PUSH1 0x0 SWAP1 DUP2 KECCAK256 DUP3 DUP2 MOD PUSH2 0x2620 MSTORE DUP2 MSTORE PUSH2 0x1360 MLOAD PUSH1 0x20 MSTORE PUSH2 0x1340 MLOAD PUSH1 0x40 MSTORE PUSH2 0x13A0 MLOAD PUSH1 0x60 MSTORE PUSH2 0x1380 MLOAD PUSH1 0x80 MSTORE PUSH1 0xA0 SWAP1 KECCAK256 DUP2 DUP2 MOD PUSH2 0x2640 DUP2 SWAP1 MSTORE DUP3 DUP2 DUP1 MULMOD PUSH2 0x3420 MSTORE DUP3 DUP2 PUSH2 0x3420 MLOAD MULMOD PUSH2 0x3440 MSTORE DUP3 DUP2 PUSH2 0x3440 MLOAD MULMOD PUSH2 0x3460 MSTORE DUP1 PUSH2 0x3480 MSTORE POP DUP1 PUSH1 0x0 MSTORE PUSH2 0x13E0 MLOAD PUSH1 0x20 MSTORE PUSH2 0x13C0 MLOAD PUSH1 0x40 MSTORE PUSH2 0x1420 MLOAD PUSH1 0x60 MSTORE PUSH2 0x1400 MLOAD PUSH1 0x80 MSTORE PUSH2 0x1460 MLOAD PUSH1 0xA0 MSTORE PUSH2 0x1440 MLOAD PUSH1 0xC0 MSTORE PUSH2 0x14A0 MLOAD PUSH1 0xE0 MSTORE PUSH2 0x1480 MLOAD PUSH2 0x100 MSTORE PUSH2 0x120 PUSH1 0x0 KECCAK256 SWAP1 POP DUP2 DUP2 MOD PUSH2 0x26C0 MSTORE DUP1 PUSH2 0x26E0 MSTORE POP PUSH2 0x2600 MLOAD PUSH2 0x2620 MLOAD PUSH2 0x3C0 MLOAD PUSH1 0x1 DUP1 DUP6 PUSH1 0x1 PUSH1 0x24 DUP1 CALLDATALOAD ADD PUSH1 0x20 PUSH2 0x3A0 MLOAD MUL DUP2 ADD DUP4 PUSH1 0x5 DUP11 MULMOD DUP5 PUSH1 0xC DUP12 MULMOD SWAP10 POP JUMPDEST DUP2 DUP4 LT ISZERO PUSH2 0xEDA JUMPI DUP3 CALLDATALOAD DUP6 DUP2 LT DUP6 AND SWAP5 POP DUP6 DUP11 DUP3 ADDMOD SWAP1 POP DUP6 DUP2 DUP4 ADD DUP10 MULMOD SWAP8 POP DUP6 DUP2 DUP13 ADD DUP9 MULMOD SWAP7 POP POP DUP5 DUP9 DUP3 MULMOD SWAP1 POP DUP5 DUP9 DUP12 MULMOD SWAP10 POP PUSH1 0x20 DUP4 ADD SWAP3 POP PUSH2 0xE9B JUMP JUMPDEST POP POP POP DUP1 PUSH2 0xF0C JUMPI PUSH32 0x374A972F00000000000000000000000000000000000000000000000000000000 PUSH1 0x0 MSTORE PUSH1 0x4 PUSH1 0x0 REVERT JUMPDEST POP POP DUP2 PUSH2 0x3000 MSTORE DUP1 PUSH2 0x3020 MSTORE POP POP POP POP POP DUP1 DUP2 PUSH1 0x1 PUSH2 0x2600 MLOAD ADDMOD PUSH2 0x2620 MLOAD MULMOD DUP1 PUSH2 0x380 MLOAD PUSH1 0x1 JUMPDEST DUP2 DUP2 LT ISZERO PUSH2 0xF48 JUMPI DUP5 DUP4 DUP5 MULMOD SWAP3 POP DUP1 ADD PUSH2 0xF33 JUMP JUMPDEST POP POP PUSH2 0x3100 MSTORE DUP2 DUP2 DUP1 MULMOD SWAP1 POP DUP2 DUP2 DUP3 MULMOD PUSH2 0x3120 MSTORE POP PUSH2 0x26C0 MLOAD PUSH2 0x380 MLOAD DUP2 SWAP1 PUSH1 0x1 JUMPDEST DUP2 DUP2 LT ISZERO PUSH2 0xF7F JUMPI DUP5 DUP4 DUP5 MULMOD SWAP3 POP DUP1 ADD PUSH2 0xF6A JUMP JUMPDEST POP POP DUP1 PUSH2 0x3040 MSTORE DUP3 PUSH1 0x1 DUP5 SUB DUP3 ADDMOD SWAP1 POP PUSH2 0x3400 MLOAD DUP1 DUP5 SUB PUSH2 0x3E0 MLOAD DUP6 DUP3 DUP7 ADDMOD DUP7 DUP5 DUP5 MULMOD SWAP3 POP DUP7 DUP8 DUP5 DUP9 ADDMOD DUP3 MULMOD SWAP1 POP DUP7 DUP5 DUP5 MULMOD SWAP3 POP DUP7 DUP8 DUP5 DUP9 ADDMOD DUP3 MULMOD SWAP1 POP DUP7 DUP8 DUP9 DUP7 DUP7 MULMOD DUP9 ADDMOD DUP3 MULMOD SWAP1 POP PUSH2 0x3C0 MLOAD SWAP3 POP DUP7 DUP3 DUP7 MULMOD SWAP2 POP DUP7 PUSH1 0x1 DUP9 SUB DUP8 ADDMOD DUP8 DUP5 DUP6 MULMOD SWAP5 POP DUP8 PUSH1 0x1 DUP10 SUB DUP10 DUP10 DUP12 DUP9 DUP14 DUP12 DUP13 MULMOD MULMOD MULMOD ADDMOD SWAP7 POP PUSH2 0x3020 MLOAD SWAP5 POP DUP5 SWAP4 POP DUP8 DUP3 DUP7 MULMOD SWAP5 POP DUP5 DUP9 DUP8 DUP8 MULMOD SWAP6 POP DUP6 DUP10 DUP4 DUP9 MULMOD SWAP7 POP DUP7 DUP11 PUSH2 0x3120 MLOAD DUP10 MULMOD SWAP8 POP DUP8 PUSH1 0x20 PUSH1 0x0 MSTORE PUSH1 0x20 DUP1 MSTORE PUSH1 0x20 PUSH1 0x40 MSTORE DUP12 DUP12 DUP11 MULMOD PUSH1 0x60 MSTORE PUSH1 0x2 DUP13 SUB PUSH1 0x80 MSTORE DUP12 PUSH1 0xA0 MSTORE PUSH1 0x20 PUSH1 0x0 PUSH1 0xC0 PUSH1 0x0 PUSH1 0x5 GAS STATICCALL PUSH2 0x1075 JUMPI PUSH32 0xF894A7BC00000000000000000000000000000000000000000000000000000000 PUSH1 0x0 MSTORE PUSH1 0x4 PUSH1 0x0 REVERT JUMPDEST PUSH1 0x0 MLOAD SWAP9 POP DUP12 DUP2 DUP11 MULMOD SWAP1 POP DUP12 DUP12 DUP11 MULMOD SWAP9 POP DUP12 DUP3 DUP11 MULMOD SWAP2 POP DUP12 PUSH2 0x3120 MLOAD DUP11 MULMOD SWAP9 POP DUP12 DUP4 DUP11 MULMOD SWAP3 POP DUP12 DUP6 DUP11 MULMOD SWAP9 POP DUP12 DUP5 DUP11 MULMOD SWAP4 POP DUP12 DUP11 DUP11 MULMOD SWAP9 POP DUP12 DUP9 DUP11 MULMOD SWAP8 POP DUP12 DUP7 DUP11 MULMOD SWAP9 POP DUP12 PUSH2 0x3020 MLOAD DUP14 DUP12 DUP13 MULMOD MULMOD SWAP9 POP DUP12 DUP10 PUSH2 0x3000 MLOAD MULMOD PUSH2 0x3060 MSTORE DUP12 DUP9 DUP12 MULMOD PUSH2 0x3080 MSTORE DUP12 DUP5 DUP8 MULMOD PUSH2 0x3780 MSTORE DUP12 DUP4 DUP9 MULMOD PUSH2 0x30A0 MSTORE DUP12 DUP3 PUSH2 0x3100 MLOAD MULMOD PUSH2 0x3140 MSTORE DUP12 DUP2 DUP9 MULMOD PUSH2 0x30C0 MSTORE POP POP POP POP POP POP POP POP POP POP POP PUSH2 0x2640 MLOAD POP PUSH2 0x2600 MLOAD PUSH2 0x2620 MLOAD DUP3 DUP4 PUSH2 0x1900 MLOAD DUP5 MULMOD DUP3 PUSH2 0x1620 MLOAD ADD ADD DUP5 PUSH2 0x18E0 MLOAD DUP6 MULMOD DUP4 PUSH2 0x1600 MLOAD ADD ADD MULMOD DUP4 DUP5 PUSH2 0x1940 MLOAD DUP6 MULMOD DUP4 PUSH2 0x1660 MLOAD ADD ADD DUP6 PUSH2 0x1920 MLOAD DUP7 MULMOD DUP5 PUSH2 0x1640 MLOAD ADD ADD MULMOD DUP5 DUP6 DUP7 DUP4 DUP6 MULMOD PUSH2 0x16A0 MLOAD MULMOD PUSH2 0x3480 MLOAD MULMOD DUP6 DUP7 PUSH2 0x1980 MLOAD DUP8 MULMOD DUP6 PUSH2 0x1620 MLOAD ADD ADD DUP8 PUSH2 0x1960 MLOAD DUP9 MULMOD DUP7 PUSH2 0x1600 MLOAD ADD ADD MULMOD SWAP3 POP DUP6 DUP7 PUSH2 0x19C0 MLOAD DUP8 MULMOD DUP6 PUSH2 0x1660 MLOAD ADD ADD DUP8 PUSH2 0x19A0 MLOAD DUP9 MULMOD DUP7 PUSH2 0x1640 MLOAD ADD ADD MULMOD SWAP2 POP DUP6 DUP7 DUP8 DUP9 DUP6 DUP8 MULMOD PUSH2 0x2080 MLOAD MULMOD PUSH2 0x3480 MLOAD MULMOD DUP8 SUB DUP3 ADDMOD SWAP1 POP DUP6 PUSH2 0x2640 MLOAD PUSH2 0x3480 MLOAD MULMOD PUSH2 0x3480 MSTORE DUP6 DUP7 DUP8 DUP9 PUSH2 0x3060 MLOAD DUP11 SUB PUSH2 0x2080 MLOAD ADDMOD PUSH2 0x30C0 MLOAD MULMOD PUSH2 0x3480 MLOAD MULMOD DUP3 ADDMOD SWAP1 POP DUP6 PUSH2 0x2640 MLOAD PUSH2 0x3480 MLOAD MULMOD PUSH2 0x3480 MSTORE DUP6 DUP7 DUP8 DUP9 PUSH1 0x1 DUP11 SUB PUSH2 0x16A0 MLOAD ADDMOD PUSH2 0x30A0 MLOAD MULMOD PUSH2 0x3480 MLOAD MULMOD DUP3 ADDMOD PUSH2 0x3600 MSTORE POP POP POP POP POP DUP1 PUSH2 0x2640 MLOAD PUSH2 0x3480 MLOAD MULMOD PUSH2 0x3480 MSTORE DUP1 PUSH2 0x1720 MLOAD PUSH2 0x2660 MLOAD MULMOD DUP2 DUP3 DUP4 PUSH2 0x2020 MLOAD PUSH2 0x1780 MLOAD MULMOD PUSH2 0x1640 MLOAD ADDMOD DUP3 ADDMOD SWAP1 POP DUP2 PUSH2 0x2660 MLOAD DUP3 MULMOD SWAP1 POP DUP2 DUP3 DUP4 PUSH2 0x2000 MLOAD PUSH2 0x1760 MLOAD MULMOD PUSH2 0x1620 MLOAD ADDMOD DUP3 ADDMOD SWAP1 POP DUP2 PUSH2 0x2660 MLOAD DUP3 MULMOD SWAP1 POP DUP2 DUP3 DUP4 PUSH2 0x19E0 MLOAD PUSH2 0x1700 MLOAD MULMOD PUSH2 0x1600 MLOAD ADDMOD DUP3 ADDMOD SWAP1 POP DUP2 PUSH2 0x1840 MLOAD DUP4 DUP5 PUSH2 0x2660 MLOAD PUSH2 0x1860 MLOAD MULMOD DUP6 DUP7 PUSH2 0x2680 MLOAD PUSH2 0x1880 MLOAD MULMOD DUP8 PUSH2 0x26A0 MLOAD PUSH2 0x18A0 MLOAD MULMOD ADDMOD ADDMOD ADDMOD DUP3 PUSH2 0x20C0 MLOAD DUP5 DUP6 PUSH2 0x2660 MLOAD PUSH2 0x20E0 MLOAD MULMOD DUP7 DUP8 PUSH2 0x2680 MLOAD PUSH2 0x2100 MLOAD MULMOD DUP9 PUSH2 0x26A0 MLOAD PUSH2 0x2120 MLOAD MULMOD ADDMOD ADDMOD ADDMOD DUP4 DUP5 PUSH1 0x1 PUSH2 0x2600 MLOAD ADDMOD PUSH2 0x2620 MLOAD MULMOD DUP5 PUSH2 0x2620 MLOAD DUP7 PUSH2 0x18C0 MLOAD DUP8 MULMOD ADDMOD SWAP4 POP DUP5 DUP2 DUP7 DUP8 PUSH2 0x2600 MLOAD DUP7 MULMOD DUP7 ADDMOD ADDMOD SWAP3 POP DUP5 DUP4 DUP6 MULMOD SWAP4 POP DUP5 DUP6 PUSH1 0x1 PUSH2 0x2600 MLOAD ADDMOD DUP6 MULMOD SWAP4 POP DUP5 PUSH2 0x30A0 MLOAD PUSH2 0x2640 MLOAD MULMOD SWAP3 POP DUP5 DUP4 DUP6 ADDMOD SWAP4 POP DUP5 PUSH2 0x16C0 MLOAD DUP6 MULMOD SWAP4 POP DUP5 DUP4 DUP7 SUB DUP6 ADDMOD SWAP4 POP DUP5 DUP2 DUP7 DUP8 PUSH2 0x2600 MLOAD PUSH2 0x2060 MLOAD MULMOD PUSH2 0x1680 MLOAD ADDMOD ADDMOD SWAP3 POP POP POP DUP3 PUSH2 0x30C0 MLOAD PUSH2 0x3420 MLOAD MULMOD DUP4 DUP2 DUP6 SUB DUP4 ADDMOD SWAP2 POP DUP4 PUSH2 0x20A0 MLOAD DUP4 MULMOD SWAP2 POP DUP4 DUP5 PUSH2 0x3140 MLOAD DUP4 MULMOD DUP4 ADDMOD SWAP2 POP POP DUP3 PUSH2 0x3480 MLOAD DUP5 DUP4 DUP7 SUB DUP6 ADDMOD MULMOD PUSH2 0x3620 MSTORE POP POP DUP1 PUSH2 0x3440 MLOAD PUSH2 0x3480 MLOAD MULMOD PUSH2 0x3480 MSTORE DUP1 PUSH2 0x16E0 MLOAD PUSH2 0x1600 MLOAD MULMOD DUP2 PUSH2 0x1700 MLOAD PUSH2 0x1620 MLOAD MULMOD DUP3 PUSH2 0x1720 MLOAD PUSH2 0x1640 MLOAD MULMOD DUP4 PUSH2 0x1740 MLOAD PUSH2 0x1660 MLOAD MULMOD DUP5 PUSH32 0x183227397098D014DC2822DB40C0AC2E9419F4243CDCB848A1F0FAC9F8000000 DUP7 DUP8 PUSH1 0x3 DUP10 SUB PUSH2 0x17A0 MLOAD ADDMOD DUP9 PUSH2 0x1760 MLOAD DUP11 PUSH2 0x1620 MLOAD PUSH2 0x1600 MLOAD MULMOD MULMOD MULMOD MULMOD DUP6 DUP7 DUP8 DUP9 DUP10 DUP6 DUP11 ADDMOD DUP9 ADDMOD DUP7 ADDMOD DUP5 ADDMOD PUSH2 0x1780 MLOAD ADDMOD SWAP5 POP POP POP POP POP DUP2 DUP3 DUP4 DUP5 DUP6 PUSH2 0x1660 MLOAD PUSH2 0x1600 MLOAD ADDMOD PUSH2 0x19E0 MLOAD DUP8 SUB ADDMOD PUSH2 0x1760 MLOAD ADDMOD DUP5 PUSH1 0x2 DUP7 SUB PUSH2 0x17A0 MLOAD ADDMOD MULMOD PUSH2 0x2640 MLOAD MULMOD DUP3 DUP4 DUP5 DUP6 DUP7 DUP6 PUSH2 0x2040 MLOAD ADDMOD DUP8 PUSH1 0x1 DUP10 SUB PUSH2 0x17A0 MLOAD ADDMOD MULMOD DUP6 ADDMOD PUSH2 0x17A0 MLOAD MULMOD PUSH2 0x3480 MLOAD MULMOD PUSH2 0x3640 MSTORE POP POP DUP1 PUSH2 0x3420 MLOAD PUSH2 0x3480 MLOAD MULMOD PUSH2 0x3480 MSTORE PUSH1 0x2 DUP2 SUB PUSH1 0x3 DUP3 SUB DUP3 PUSH2 0x1600 MLOAD DUP5 SUB PUSH2 0x1620 MLOAD ADDMOD DUP4 PUSH2 0x1620 MLOAD DUP6 SUB PUSH2 0x1640 MLOAD ADDMOD DUP5 PUSH2 0x1640 MLOAD DUP7 SUB PUSH2 0x1660 MLOAD ADDMOD DUP6 PUSH2 0x1660 MLOAD DUP8 SUB PUSH2 0x19E0 MLOAD ADDMOD DUP7 PUSH2 0x3480 MLOAD DUP9 DUP10 DUP9 DUP9 ADDMOD DUP11 DUP12 DUP12 DUP11 ADDMOD DUP13 DUP11 DUP15 SUB DUP15 DUP13 DUP14 MULMOD ADDMOD MULMOD MULMOD MULMOD SWAP4 POP DUP7 DUP8 DUP9 PUSH2 0x2640 MLOAD PUSH2 0x3480 MLOAD MULMOD DUP10 DUP11 DUP10 DUP9 ADDMOD DUP12 DUP13 DUP13 DUP11 ADDMOD DUP14 DUP11 DUP16 SUB DUP16 DUP13 DUP14 MULMOD ADDMOD MULMOD MULMOD MULMOD DUP6 ADDMOD SWAP4 POP DUP7 DUP8 DUP9 PUSH2 0x3420 MLOAD PUSH2 0x3480 MLOAD MULMOD DUP10 DUP11 DUP10 DUP8 ADDMOD DUP12 DUP13 DUP13 DUP10 ADDMOD DUP14 DUP10 DUP16 SUB DUP16 DUP12 DUP13 MULMOD ADDMOD MULMOD MULMOD MULMOD DUP6 ADDMOD SWAP4 POP DUP7 DUP8 DUP9 PUSH2 0x3440 MLOAD PUSH2 0x3480 MLOAD MULMOD DUP10 DUP11 DUP10 DUP7 ADDMOD DUP12 DUP13 DUP13 DUP9 ADDMOD DUP14 DUP9 DUP16 SUB DUP16 DUP11 DUP12 MULMOD ADDMOD MULMOD MULMOD MULMOD DUP6 ADDMOD SWAP4 POP POP POP POP DUP4 PUSH2 0x17C0 MLOAD DUP3 MULMOD PUSH2 0x3660 MSTORE POP POP PUSH2 0x3460 MLOAD PUSH2 0x3480 MLOAD DUP4 SWAP3 POP MULMOD PUSH2 0x3480 MSTORE DUP1 PUSH2 0x1620 MLOAD DUP3 SUB PUSH2 0x19E0 MLOAD ADDMOD DUP2 PUSH2 0x2040 MLOAD PUSH2 0x2040 MLOAD MULMOD DUP3 PUSH2 0x1640 MLOAD PUSH2 0x1640 MLOAD MULMOD DUP4 PUSH2 0x16E0 MLOAD DUP6 PUSH2 0x2040 MLOAD PUSH2 0x1640 MLOAD MULMOD MULMOD DUP5 DUP6 DUP7 DUP4 DUP5 ADDMOD DUP8 DUP6 DUP8 ADDMOD DUP9 SUB ADDMOD DUP7 DUP8 DUP8 DUP9 MULMOD DUP9 DUP10 PUSH2 0x1620 MLOAD PUSH2 0x19E0 MLOAD ADDMOD PUSH2 0x2000 MLOAD ADDMOD MULMOD ADDMOD SWAP3 POP POP POP DUP3 PUSH2 0x3480 MLOAD DUP5 DUP6 PUSH2 0x1760 MLOAD DUP8 SUB PUSH1 0x1 ADDMOD DUP5 MULMOD MULMOD SWAP1 POP DUP3 PUSH2 0x2020 MLOAD PUSH2 0x1640 MLOAD ADDMOD DUP4 PUSH2 0x1640 MLOAD DUP6 SUB DUP6 PUSH2 0x16E0 MLOAD PUSH2 0x2040 MLOAD MULMOD ADDMOD DUP5 DUP6 DUP3 DUP8 PUSH2 0x1620 MLOAD DUP10 SUB PUSH2 0x2000 MLOAD ADDMOD MULMOD DUP7 DUP7 DUP6 MULMOD ADDMOD SWAP4 POP POP POP DUP3 DUP4 PUSH2 0x2640 MLOAD PUSH2 0x3480 MLOAD MULMOD DUP5 DUP6 PUSH2 0x1760 MLOAD DUP8 SUB PUSH1 0x1 ADDMOD DUP6 MULMOD MULMOD SWAP2 POP DUP3 PUSH2 0x17E0 MLOAD DUP5 DUP5 DUP5 ADDMOD MULMOD PUSH2 0x3680 MSTORE POP POP DUP1 PUSH2 0x1620 MLOAD PUSH2 0x1620 MLOAD MULMOD DUP2 PUSH2 0x1640 MLOAD PUSH2 0x1640 MLOAD MULMOD DUP3 PUSH2 0x1620 MLOAD DUP5 PUSH1 0x11 DUP5 ADDMOD MULMOD DUP4 PUSH1 0x4 DUP4 MULMOD SWAP2 POP DUP4 PUSH1 0x9 DUP3 MULMOD SWAP1 POP DUP4 PUSH1 0x3 DUP5 MULMOD SWAP3 POP DUP4 DUP2 DUP6 SUB DUP6 DUP5 DUP8 DUP9 PUSH2 0x1620 MLOAD PUSH2 0x1620 MLOAD ADDMOD PUSH2 0x2000 MLOAD ADDMOD MULMOD ADDMOD SWAP2 POP POP DUP3 DUP4 DUP5 PUSH2 0x2020 MLOAD PUSH2 0x1640 MLOAD ADDMOD DUP6 PUSH2 0x1640 MLOAD PUSH2 0x1640 MLOAD ADDMOD MULMOD DUP5 SUB DUP5 DUP6 PUSH2 0x2000 MLOAD DUP8 SUB PUSH2 0x1620 MLOAD ADDMOD DUP6 MULMOD ADDMOD SWAP2 POP DUP3 PUSH2 0x3480 MLOAD DUP3 MULMOD SWAP1 POP DUP3 DUP4 PUSH2 0x2640 MLOAD PUSH2 0x3480 MLOAD MULMOD DUP4 MULMOD SWAP2 POP DUP3 PUSH2 0x1760 MLOAD DUP3 MULMOD SWAP1 POP DUP3 PUSH2 0x1760 MLOAD DUP4 MULMOD SWAP2 POP DUP3 DUP4 PUSH2 0x17E0 MLOAD DUP6 DUP6 DUP6 ADDMOD MULMOD PUSH2 0x3680 MLOAD ADDMOD PUSH2 0x3680 MSTORE POP POP DUP1 PUSH2 0x3460 MLOAD PUSH2 0x3480 MLOAD MULMOD PUSH2 0x3480 MSTORE DUP1 DUP2 PUSH2 0x1620 MLOAD PUSH2 0x19E0 MLOAD MULMOD DUP3 PUSH2 0x2000 MLOAD PUSH2 0x1600 MLOAD MULMOD ADDMOD DUP2 PUSH2 0x2020 MLOAD DUP4 SUB DUP4 DUP5 PUSH2 0x1640 MLOAD PUSH2 0x1620 MLOAD MULMOD DUP6 PUSH2 0x1660 MLOAD PUSH2 0x1600 MLOAD MULMOD ADDMOD ADDMOD DUP3 PUSH9 0x100000000000000000 DUP3 MULMOD SWAP1 POP DUP3 PUSH2 0x2040 MLOAD DUP5 SUB DUP3 ADDMOD SWAP1 POP DUP3 DUP3 DUP3 ADDMOD SWAP1 POP DUP3 PUSH2 0x1740 MLOAD DUP3 MULMOD SWAP1 POP DUP3 PUSH9 0x100000000000000000 DUP4 MULMOD SWAP2 POP DUP3 DUP4 PUSH2 0x2000 MLOAD PUSH2 0x19E0 MLOAD MULMOD DUP4 ADDMOD SWAP2 POP DUP3 PUSH2 0x1720 MLOAD DUP5 DUP6 PUSH2 0x1660 MLOAD PUSH2 0x1640 MLOAD ADDMOD DUP7 SUB DUP6 ADDMOD MULMOD DUP4 PUSH2 0x1760 MLOAD DUP6 DUP7 PUSH2 0x2040 MLOAD PUSH2 0x2020 MLOAD ADDMOD DUP8 SUB DUP8 PUSH2 0x1660 MLOAD DUP9 ADDMOD ADDMOD MULMOD SWAP3 POP DUP4 PUSH2 0x1700 MLOAD DUP6 DUP6 DUP8 DUP7 DUP7 ADDMOD ADDMOD MULMOD PUSH2 0x36C0 MSTORE POP POP PUSH2 0x2000 MLOAD DUP3 SWAP2 POP PUSH2 0x4000 SWAP1 MULMOD DUP2 PUSH2 0x19E0 MLOAD DUP3 ADDMOD SWAP1 POP DUP2 PUSH2 0x4000 DUP3 MULMOD SWAP1 POP DUP2 PUSH2 0x1640 MLOAD DUP3 ADDMOD SWAP1 POP DUP2 PUSH2 0x4000 DUP3 MULMOD SWAP1 POP DUP2 PUSH2 0x1620 MLOAD DUP3 ADDMOD SWAP1 POP DUP2 PUSH2 0x4000 DUP3 MULMOD SWAP1 POP DUP2 PUSH2 0x1600 MLOAD DUP3 ADDMOD SWAP1 POP DUP2 PUSH2 0x1660 MLOAD DUP4 SUB DUP3 ADDMOD SWAP1 POP DUP2 PUSH2 0x1740 MLOAD DUP3 MULMOD SWAP1 POP DUP2 PUSH2 0x4000 PUSH2 0x2020 MLOAD MULMOD DUP3 PUSH2 0x2000 MLOAD DUP3 ADDMOD SWAP1 POP DUP3 PUSH2 0x4000 DUP3 MULMOD SWAP1 POP DUP3 PUSH2 0x19E0 MLOAD DUP3 ADDMOD SWAP1 POP DUP3 PUSH2 0x4000 DUP3 MULMOD SWAP1 POP DUP3 PUSH2 0x1660 MLOAD DUP3 ADDMOD SWAP1 POP DUP3 PUSH2 0x4000 DUP3 MULMOD SWAP1 POP DUP3 PUSH2 0x1640 MLOAD DUP3 ADDMOD SWAP1 POP DUP3 PUSH2 0x2040 MLOAD DUP5 SUB DUP3 ADDMOD SWAP1 POP DUP3 PUSH2 0x1760 MLOAD DUP3 MULMOD SWAP1 POP DUP3 PUSH2 0x1720 MLOAD DUP5 DUP4 DUP6 ADDMOD MULMOD PUSH2 0x36E0 MSTORE POP POP DUP1 PUSH2 0x2660 MLOAD PUSH2 0x1640 MLOAD MULMOD DUP2 PUSH2 0x1620 MLOAD DUP3 ADDMOD SWAP1 POP DUP2 PUSH2 0x2660 MLOAD DUP3 MULMOD SWAP1 POP DUP2 PUSH2 0x1600 MLOAD DUP3 ADDMOD SWAP1 POP DUP2 PUSH2 0x2660 MLOAD DUP3 MULMOD SWAP1 POP DUP2 PUSH2 0x1780 MLOAD DUP3 ADDMOD SWAP1 POP DUP1 DUP3 PUSH2 0x1660 MLOAD DUP5 SUB DUP4 ADDMOD SWAP2 POP DUP2 PUSH2 0x3740 MSTORE DUP3 PUSH2 0x1600 MLOAD DUP5 SUB PUSH2 0x19E0 MLOAD ADDMOD DUP4 PUSH2 0x1660 MLOAD DUP6 SUB PUSH2 0x2040 MLOAD ADDMOD DUP5 DUP6 PUSH1 0x1 DUP8 SUB DUP5 ADDMOD DUP4 MULMOD DUP6 DUP7 DUP5 DUP9 SUB PUSH1 0x1 ADDMOD DUP4 MULMOD SWAP2 POP DUP6 DUP6 DUP8 PUSH2 0x2640 MLOAD DUP10 DUP6 DUP12 PUSH2 0x2640 MLOAD DUP10 MULMOD ADDMOD MULMOD ADDMOD PUSH2 0x3720 MSTORE DUP6 PUSH2 0x2660 MLOAD PUSH2 0x2020 MLOAD MULMOD SWAP5 POP DUP6 PUSH2 0x2000 MLOAD DUP7 ADDMOD SWAP5 POP DUP6 PUSH2 0x2660 MLOAD DUP7 MULMOD SWAP5 POP DUP6 PUSH2 0x19E0 MLOAD DUP7 ADDMOD SWAP5 POP DUP6 PUSH2 0x2660 MLOAD DUP7 MULMOD SWAP5 POP DUP6 DUP6 DUP8 SUB PUSH2 0x2040 MLOAD ADDMOD SWAP5 POP DUP6 PUSH2 0x1640 MLOAD DUP8 SUB PUSH2 0x2020 MLOAD ADDMOD SWAP2 POP DUP6 DUP7 DUP8 DUP8 DUP10 SUB PUSH1 0x1 ADDMOD DUP5 MULMOD DUP8 DUP6 DUP10 SUB PUSH1 0x1 ADDMOD MULMOD SWAP2 POP DUP6 DUP5 DUP8 SUB PUSH2 0x1660 MLOAD ADDMOD DUP7 DUP8 PUSH1 0x1 DUP10 SUB DUP4 ADDMOD DUP3 MULMOD SWAP1 POP DUP7 DUP8 PUSH1 0x1 DUP10 SUB DUP9 ADDMOD DUP8 MULMOD SWAP6 POP DUP7 PUSH2 0x2640 MLOAD DUP5 MULMOD SWAP3 POP DUP7 DUP3 DUP5 ADDMOD SWAP3 POP DUP7 PUSH2 0x2640 MLOAD DUP5 MULMOD SWAP3 POP DUP7 DUP7 DUP5 ADDMOD SWAP3 POP DUP7 PUSH2 0x2640 MLOAD DUP5 MULMOD SWAP3 POP DUP7 DUP2 DUP5 ADDMOD SWAP3 POP POP DUP2 PUSH2 0x3700 MSTORE POP POP DUP4 PUSH2 0x1620 MLOAD DUP6 SUB PUSH2 0x2000 MLOAD ADDMOD SWAP3 POP DUP4 PUSH2 0x1640 MLOAD DUP6 SUB DUP6 DUP7 DUP5 DUP9 SUB PUSH1 0x1 ADDMOD DUP7 MULMOD ADDMOD SWAP3 POP DUP4 PUSH2 0x1700 MLOAD PUSH2 0x3720 MLOAD MULMOD SWAP2 POP DUP4 DUP5 PUSH2 0x1740 MLOAD DUP6 MULMOD DUP4 ADDMOD SWAP2 POP DUP4 DUP5 PUSH2 0x1760 MLOAD PUSH2 0x3740 MLOAD MULMOD DUP4 ADDMOD SWAP2 POP DUP4 PUSH2 0x16E0 MLOAD DUP4 MULMOD SWAP2 POP DUP4 DUP5 PUSH2 0x17A0 MLOAD PUSH2 0x3700 MLOAD MULMOD DUP4 ADDMOD SWAP2 POP DUP4 PUSH2 0x36C0 MLOAD DUP4 ADDMOD SWAP3 POP DUP4 PUSH2 0x36E0 MLOAD DUP5 ADDMOD SWAP3 POP DUP4 PUSH2 0x1800 MLOAD DUP5 MULMOD SWAP3 POP DUP4 PUSH2 0x3480 MLOAD DUP5 MULMOD SWAP3 POP DUP3 PUSH2 0x36A0 MSTORE DUP4 PUSH2 0x3440 MLOAD PUSH2 0x3480 MLOAD MULMOD PUSH2 0x3480 MSTORE POP POP POP DUP1 PUSH2 0x3780 MLOAD DUP3 PUSH2 0x36A0 MLOAD DUP5 PUSH2 0x3680 MLOAD DUP7 PUSH2 0x3660 MLOAD DUP9 PUSH2 0x3640 MLOAD DUP11 PUSH2 0x3620 MLOAD PUSH2 0x3600 MLOAD ADDMOD ADDMOD ADDMOD ADDMOD ADDMOD MULMOD PUSH2 0x3760 DUP2 SWAP1 MSTORE PUSH2 0x26E0 MLOAD PUSH2 0x37A0 DUP2 SWAP1 MSTORE PUSH2 0x37C0 SWAP2 SWAP1 SWAP2 MSTORE PUSH2 0x2E4 PUSH1 0x4 CALLDATALOAD ADD PUSH2 0x520 DUP2 PUSH2 0x37E0 CALLDATACOPY POP POP PUSH2 0x560 PUSH2 0x37A0 KECCAK256 DUP2 DUP2 MOD PUSH2 0x2700 MSTORE PUSH1 0x0 DUP2 SWAP1 MSTORE PUSH1 0x1 PUSH1 0x20 MSTORE8 DUP2 PUSH1 0x21 PUSH1 0x0 KECCAK256 MOD PUSH2 0x2720 MSTORE PUSH1 0x2 PUSH1 0x20 MSTORE8 DUP2 PUSH1 0x21 PUSH1 0x0 KECCAK256 MOD PUSH2 0x2740 MSTORE PUSH1 0x3 PUSH1 0x20 MSTORE8 DUP2 PUSH1 0x21 PUSH1 0x0 KECCAK256 MOD PUSH2 0x2760 MSTORE PUSH1 0x4 PUSH1 0x20 MSTORE8 DUP2 PUSH1 0x21 PUSH1 0x0 KECCAK256 MOD PUSH2 0x2780 MSTORE PUSH1 0x5 PUSH1 0x20 MSTORE8 DUP2 PUSH1 0x21 PUSH1 0x0 KECCAK256 MOD PUSH2 0x27A0 MSTORE PUSH1 0x6 PUSH1 0x20 MSTORE8 DUP2 PUSH1 0x21 PUSH1 0x0 KECCAK256 MOD PUSH2 0x27C0 MSTORE PUSH1 0x7 PUSH1 0x20 MSTORE8 DUP2 PUSH1 0x21 PUSH1 0x0 KECCAK256 MOD PUSH2 0x27E0 MSTORE PUSH1 0x8 PUSH1 0x20 MSTORE8 DUP2 PUSH1 0x21 PUSH1 0x0 KECCAK256 MOD PUSH2 0x2800 MSTORE PUSH1 0x9 PUSH1 0x20 MSTORE8 DUP2 PUSH1 0x21 PUSH1 0x0 KECCAK256 MOD PUSH2 0x2820 MSTORE PUSH1 0xA PUSH1 0x20 MSTORE8 DUP2 PUSH1 0x21 PUSH1 0x0 KECCAK256 MOD PUSH2 0x2840 MSTORE PUSH1 0xB PUSH1 0x20 MSTORE8 DUP2 PUSH1 0x21 PUSH1 0x0 KECCAK256 MOD PUSH2 0x2860 MSTORE PUSH1 0xC PUSH1 0x20 MSTORE8 DUP2 PUSH1 0x21 PUSH1 0x0 KECCAK256 MOD PUSH2 0x2880 MSTORE PUSH1 0xD PUSH1 0x20 MSTORE8 DUP2 PUSH1 0x21 PUSH1 0x0 KECCAK256 MOD PUSH2 0x28A0 MSTORE PUSH1 0xE PUSH1 0x20 MSTORE8 DUP2 PUSH1 0x21 PUSH1 0x0 KECCAK256 MOD PUSH2 0x28C0 MSTORE PUSH1 0xF PUSH1 0x20 MSTORE8 DUP2 PUSH1 0x21 PUSH1 0x0 KECCAK256 MOD PUSH2 0x28E0 MSTORE PUSH1 0x10 PUSH1 0x20 MSTORE8 DUP2 PUSH1 0x21 PUSH1 0x0 KECCAK256 MOD PUSH2 0x2900 MSTORE PUSH1 0x11 PUSH1 0x20 MSTORE8 DUP2 PUSH1 0x21 PUSH1 0x0 KECCAK256 MOD PUSH2 0x2920 MSTORE PUSH1 0x12 PUSH1 0x20 MSTORE8 DUP2 PUSH1 0x21 PUSH1 0x0 KECCAK256 MOD PUSH2 0x2940 MSTORE PUSH1 0x13 PUSH1 0x20 MSTORE8 DUP2 PUSH1 0x21 PUSH1 0x0 KECCAK256 MOD PUSH2 0x2960 MSTORE PUSH1 0x14 PUSH1 0x20 MSTORE8 DUP2 PUSH1 0x21 PUSH1 0x0 KECCAK256 MOD PUSH2 0x2980 MSTORE PUSH1 0x15 PUSH1 0x20 MSTORE8 DUP2 PUSH1 0x21 PUSH1 0x0 KECCAK256 MOD PUSH2 0x29A0 MSTORE PUSH1 0x16 PUSH1 0x20 MSTORE8 DUP2 PUSH1 0x21 PUSH1 0x0 KECCAK256 MOD PUSH2 0x29C0 MSTORE PUSH1 0x17 PUSH1 0x20 MSTORE8 DUP2 PUSH1 0x21 PUSH1 0x0 KECCAK256 MOD PUSH2 0x29E0 MSTORE PUSH1 0x18 PUSH1 0x20 MSTORE8 DUP2 PUSH1 0x21 PUSH1 0x0 KECCAK256 MOD PUSH2 0x2A00 MSTORE PUSH1 0x19 PUSH1 0x20 MSTORE8 DUP2 PUSH1 0x21 PUSH1 0x0 KECCAK256 MOD PUSH2 0x2A20 MSTORE PUSH1 0x1A PUSH1 0x20 MSTORE8 DUP2 PUSH1 0x21 PUSH1 0x0 KECCAK256 MOD PUSH2 0x2A40 MSTORE PUSH1 0x1B PUSH1 0x20 MSTORE8 DUP2 PUSH1 0x21 PUSH1 0x0 KECCAK256 MOD PUSH2 0x2A60 MSTORE PUSH1 0x1C PUSH1 0x20 MSTORE8 DUP2 PUSH1 0x21 PUSH1 0x0 KECCAK256 MOD PUSH2 0x2A80 MSTORE PUSH1 0x1D PUSH1 0x20 MSTORE8 DUP2 PUSH1 0x21 PUSH1 0x0 KECCAK256 MOD PUSH2 0x2AA0 MSTORE PUSH1 0x1D PUSH1 0x20 MSTORE8 POP PUSH1 0x21 PUSH1 0x0 SWAP1 DUP2 KECCAK256 DUP3 DUP2 MOD PUSH2 0x2AC0 MSTORE DUP2 MSTORE PUSH2 0x2320 MLOAD PUSH1 0x20 MSTORE PUSH2 0x2300 MLOAD PUSH1 0x40 MSTORE PUSH2 0x2360 MLOAD PUSH1 0x60 MSTORE PUSH2 0x2340 MLOAD PUSH1 0x80 MSTORE PUSH1 0xA0 DUP2 KECCAK256 DUP3 SWAP1 MOD PUSH2 0x2B00 MSTORE PUSH2 0x13C0 MLOAD PUSH2 0x13E0 MLOAD DUP5 DUP3 DUP1 MULMOD DUP6 PUSH1 0x3 DUP8 DUP4 DUP7 MULMOD ADDMOD DUP7 DUP4 DUP5 MULMOD EQ SWAP4 POP POP DUP2 PUSH2 0x3160 MSTORE DUP1 PUSH1 0x20 PUSH2 0x3160 ADD MSTORE POP POP PUSH2 0x1400 MLOAD PUSH2 0x1420 MLOAD DUP5 DUP3 DUP4 MULMOD DUP6 PUSH1 0x3 DUP8 DUP4 DUP7 MULMOD ADDMOD DUP7 DUP4 DUP5 MULMOD EQ DUP5 AND SWAP4 POP POP DUP2 PUSH1 0x0 MSTORE DUP1 PUSH1 0x20 MSTORE POP POP PUSH2 0x3040 MLOAD PUSH1 0x40 MSTORE PUSH1 0x40 PUSH2 0x31A0 PUSH1 0x60 PUSH1 0x0 PUSH1 0x7 GAS STATICCALL AND PUSH1 0x40 PUSH2 0x3160 PUSH1 0x80 DUP2 PUSH1 0x6 GAS STATICCALL DUP2 AND SWAP1 POP PUSH2 0x1440 MLOAD PUSH2 0x1460 MLOAD DUP5 DUP3 DUP4 MULMOD DUP6 PUSH1 0x3 DUP8 DUP4 DUP7 MULMOD ADDMOD DUP7 DUP4 DUP5 MULMOD EQ DUP5 AND SWAP4 POP POP DUP2 PUSH1 0x0 MSTORE DUP1 PUSH1 0x20 MSTORE POP POP DUP2 PUSH2 0x3040 MLOAD PUSH2 0x3040 MLOAD MULMOD PUSH1 0x40 MSTORE PUSH1 0x40 PUSH2 0x31A0 PUSH1 0x60 PUSH1 0x0 PUSH1 0x7 GAS STATICCALL AND PUSH1 0x40 PUSH2 0x3160 PUSH1 0x80 DUP2 PUSH1 0x6 GAS STATICCALL DUP2 AND SWAP1 POP PUSH2 0x1480 MLOAD PUSH2 0x14A0 MLOAD DUP5 DUP3 DUP4 MULMOD DUP6 PUSH1 0x3 DUP8 DUP4 DUP7 MULMOD ADDMOD DUP7 DUP4 DUP5 MULMOD EQ DUP5 AND SWAP4 POP POP DUP2 PUSH1 0x0 MSTORE DUP1 PUSH1 0x20 MSTORE POP POP DUP2 PUSH2 0x3040 MLOAD DUP4 PUSH2 0x3040 MLOAD PUSH2 0x3040 MLOAD MULMOD MULMOD PUSH1 0x40 MSTORE PUSH1 0x40 PUSH2 0x31A0 PUSH1 0x60 PUSH1 0x0 PUSH1 0x7 GAS STATICCALL AND PUSH1 0x40 PUSH2 0x3160 PUSH1 0x80 DUP2 PUSH1 0x6 GAS STATICCALL DUP2 AND SWAP1 POP PUSH2 0x1200 MLOAD PUSH2 0x1220 MLOAD DUP5 DUP3 DUP4 MULMOD DUP6 PUSH1 0x3 DUP8 DUP4 DUP7 MULMOD ADDMOD DUP7 DUP4 DUP5 MULMOD EQ DUP5 AND SWAP4 POP POP DUP2 PUSH1 0x0 MSTORE DUP1 PUSH1 0x20 MSTORE POP POP DUP2 PUSH2 0x2700 MLOAD DUP4 PUSH1 0x1 PUSH2 0x2B00 MLOAD ADDMOD MULMOD PUSH1 0x40 MSTORE PUSH1 0x40 PUSH2 0x31A0 PUSH1 0x60 PUSH1 0x0 PUSH1 0x7 GAS STATICCALL AND PUSH1 0x40 PUSH2 0x3160 PUSH1 0x80 DUP2 PUSH1 0x6 GAS STATICCALL DUP2 AND SWAP1 POP PUSH2 0x1240 MLOAD PUSH2 0x1260 MLOAD DUP5 DUP3 DUP4 MULMOD DUP6 PUSH1 0x3 DUP8 DUP4 DUP7 MULMOD ADDMOD DUP7 DUP4 DUP5 MULMOD EQ DUP5 AND SWAP4 POP POP DUP2 PUSH1 0x0 MSTORE DUP1 PUSH1 0x20 MSTORE POP POP DUP2 PUSH2 0x2720 MLOAD DUP4 PUSH1 0x1 PUSH2 0x2B00 MLOAD ADDMOD MULMOD PUSH1 0x40 MSTORE PUSH1 0x40 PUSH2 0x31A0 PUSH1 0x60 PUSH1 0x0 PUSH1 0x7 GAS STATICCALL AND PUSH1 0x40 PUSH2 0x3160 PUSH1 0x80 DUP2 PUSH1 0x6 GAS STATICCALL DUP2 AND SWAP1 POP PUSH2 0x1280 MLOAD PUSH2 0x12A0 MLOAD DUP5 DUP3 DUP4 MULMOD DUP6 PUSH1 0x3 DUP8 DUP4 DUP7 MULMOD ADDMOD DUP7 DUP4 DUP5 MULMOD EQ DUP5 AND SWAP4 POP POP DUP2 PUSH1 0x0 MSTORE DUP1 PUSH1 0x20 MSTORE POP POP DUP2 PUSH2 0x2740 MLOAD DUP4 PUSH1 0x1 PUSH2 0x2B00 MLOAD ADDMOD MULMOD PUSH1 0x40 MSTORE PUSH1 0x40 PUSH2 0x31A0 PUSH1 0x60 PUSH1 0x0 PUSH1 0x7 GAS STATICCALL AND PUSH1 0x40 PUSH2 0x3160 PUSH1 0x80 DUP2 PUSH1 0x6 GAS STATICCALL DUP2 AND SWAP1 POP PUSH2 0x12C0 MLOAD PUSH2 0x12E0 MLOAD DUP5 DUP3 DUP4 MULMOD DUP6 PUSH1 0x3 DUP8 DUP4 DUP7 MULMOD ADDMOD DUP7 DUP4 DUP5 MULMOD EQ DUP5 AND SWAP4 POP POP DUP2 PUSH1 0x0 MSTORE DUP1 PUSH1 0x20 MSTORE POP POP DUP2 PUSH2 0x2760 MLOAD DUP4 PUSH1 0x1 PUSH2 0x2B00 MLOAD ADDMOD MULMOD PUSH1 0x40 MSTORE PUSH1 0x40 PUSH2 0x31A0 PUSH1 0x60 PUSH1 0x0 PUSH1 0x7 GAS STATICCALL AND PUSH1 0x40 PUSH2 0x3160 PUSH1 0x80 DUP2 PUSH1 0x6 GAS STATICCALL DUP2 AND SWAP1 POP PUSH2 0x1300 MLOAD PUSH2 0x1320 MLOAD DUP5 DUP3 DUP4 MULMOD DUP6 PUSH1 0x3 DUP8 DUP4 DUP7 MULMOD ADDMOD DUP7 DUP4 DUP5 MULMOD EQ DUP5 AND SWAP4 POP POP DUP2 PUSH1 0x0 MSTORE DUP1 PUSH1 0x20 MSTORE POP POP DUP2 PUSH2 0x2780 MLOAD DUP4 PUSH1 0x1 PUSH2 0x2B00 MLOAD ADDMOD MULMOD PUSH1 0x40 MSTORE PUSH1 0x40 PUSH2 0x31A0 PUSH1 0x60 PUSH1 0x0 PUSH1 0x7 GAS STATICCALL AND PUSH1 0x40 PUSH2 0x3160 PUSH1 0x80 DUP2 PUSH1 0x6 GAS STATICCALL DUP2 AND SWAP1 POP PUSH2 0x1340 MLOAD PUSH2 0x1360 MLOAD DUP5 DUP3 DUP4 MULMOD DUP6 PUSH1 0x3 DUP8 DUP4 DUP7 MULMOD ADDMOD DUP7 DUP4 DUP5 MULMOD EQ DUP5 AND SWAP4 POP POP DUP2 PUSH1 0x0 MSTORE DUP1 PUSH1 0x20 MSTORE POP POP DUP2 PUSH2 0x27A0 MLOAD DUP4 PUSH1 0x1 PUSH2 0x2B00 MLOAD ADDMOD MULMOD PUSH1 0x40 MSTORE PUSH1 0x40 PUSH2 0x31A0 PUSH1 0x60 PUSH1 0x0 PUSH1 0x7 GAS STATICCALL AND PUSH1 0x40 PUSH2 0x3160 PUSH1 0x80 DUP2 PUSH1 0x6 GAS STATICCALL DUP2 AND SWAP1 POP PUSH2 0x1380 MLOAD PUSH2 0x13A0 MLOAD DUP5 DUP3 DUP4 MULMOD DUP6 PUSH1 0x3 DUP8 DUP4 DUP7 MULMOD ADDMOD DUP7 DUP4 DUP5 MULMOD EQ DUP5 AND SWAP4 POP POP DUP2 PUSH1 0x0 MSTORE DUP1 PUSH1 0x20 MSTORE POP POP DUP2 PUSH2 0x27C0 MLOAD DUP4 PUSH1 0x1 PUSH2 0x2B00 MLOAD ADDMOD MULMOD PUSH1 0x40 MSTORE PUSH1 0x40 PUSH2 0x31A0 PUSH1 0x60 PUSH1 0x0 PUSH1 0x7 GAS STATICCALL AND PUSH1 0x40 PUSH2 0x3160 PUSH1 0x80 DUP2 PUSH1 0x6 GAS STATICCALL DUP2 AND SWAP1 POP PUSH2 0x400 MLOAD PUSH2 0x420 MLOAD DUP5 DUP3 DUP4 MULMOD DUP6 PUSH1 0x3 DUP8 DUP4 DUP7 MULMOD ADDMOD DUP7 DUP4 DUP5 MULMOD EQ DUP5 AND SWAP4 POP POP DUP2 PUSH1 0x0 MSTORE DUP1 PUSH1 0x20 MSTORE POP POP PUSH2 0x27E0 MLOAD PUSH1 0x40 MSTORE PUSH1 0x40 PUSH2 0x31A0 PUSH1 0x60 PUSH1 0x0 PUSH1 0x7 GAS STATICCALL AND PUSH1 0x40 PUSH2 0x3160 PUSH1 0x80 DUP2 PUSH1 0x6 GAS STATICCALL DUP2 AND SWAP1 POP PUSH2 0x440 MLOAD PUSH2 0x460 MLOAD DUP5 DUP3 DUP4 MULMOD DUP6 PUSH1 0x3 DUP8 DUP4 DUP7 MULMOD ADDMOD DUP7 DUP4 DUP5 MULMOD EQ DUP5 AND SWAP4 POP POP DUP2 PUSH1 0x0 MSTORE DUP1 PUSH1 0x20 MSTORE POP POP PUSH2 0x2800 MLOAD PUSH1 0x40 MSTORE PUSH1 0x40 PUSH2 0x31A0 PUSH1 0x60 PUSH1 0x0 PUSH1 0x7 GAS STATICCALL AND PUSH1 0x40 PUSH2 0x3160 PUSH1 0x80 DUP2 PUSH1 0x6 GAS STATICCALL DUP2 AND SWAP1 POP PUSH2 0x480 MLOAD PUSH2 0x4A0 MLOAD DUP5 DUP3 DUP4 MULMOD DUP6 PUSH1 0x3 DUP8 DUP4 DUP7 MULMOD ADDMOD DUP7 DUP4 DUP5 MULMOD EQ DUP5 AND SWAP4 POP POP DUP2 PUSH1 0x0 MSTORE DUP1 PUSH1 0x20 MSTORE POP POP PUSH2 0x2820 MLOAD PUSH1 0x40 MSTORE PUSH1 0x40 PUSH2 0x31A0 PUSH1 0x60 PUSH1 0x0 PUSH1 0x7 GAS STATICCALL AND PUSH1 0x40 PUSH2 0x3160 PUSH1 0x80 DUP2 PUSH1 0x6 GAS STATICCALL DUP2 AND SWAP1 POP PUSH2 0x4C0 MLOAD PUSH2 0x4E0 MLOAD DUP5 DUP3 DUP4 MULMOD DUP6 PUSH1 0x3 DUP8 DUP4 DUP7 MULMOD ADDMOD DUP7 DUP4 DUP5 MULMOD EQ DUP5 AND SWAP4 POP POP DUP2 PUSH1 0x0 MSTORE DUP1 PUSH1 0x20 MSTORE POP POP PUSH2 0x2840 MLOAD PUSH1 0x40 MSTORE PUSH1 0x40 PUSH2 0x31A0 PUSH1 0x60 PUSH1 0x0 PUSH1 0x7 GAS STATICCALL AND PUSH1 0x40 PUSH2 0x3160 PUSH1 0x80 DUP2 PUSH1 0x6 GAS STATICCALL DUP2 AND SWAP1 POP PUSH2 0x500 MLOAD PUSH2 0x520 MLOAD DUP5 DUP3 DUP4 MULMOD DUP6 PUSH1 0x3 DUP8 DUP4 DUP7 MULMOD ADDMOD DUP7 DUP4 DUP5 MULMOD EQ DUP5 AND SWAP4 POP POP DUP2 PUSH1 0x0 MSTORE DUP1 PUSH1 0x20 MSTORE POP POP PUSH2 0x2860 MLOAD PUSH1 0x40 MSTORE PUSH1 0x40 PUSH2 0x31A0 PUSH1 0x60 PUSH1 0x0 PUSH1 0x7 GAS STATICCALL AND PUSH1 0x40 PUSH2 0x3160 PUSH1 0x80 DUP2 PUSH1 0x6 GAS STATICCALL DUP2 AND SWAP1 POP PUSH2 0x540 MLOAD PUSH2 0x560 MLOAD DUP5 DUP3 DUP4 MULMOD DUP6 PUSH1 0x3 DUP8 DUP4 DUP7 MULMOD ADDMOD DUP7 DUP4 DUP5 MULMOD EQ DUP5 AND SWAP4 POP POP DUP2 PUSH1 0x0 MSTORE DUP1 PUSH1 0x20 MSTORE POP POP PUSH2 0x2880 MLOAD PUSH1 0x40 MSTORE PUSH1 0x40 PUSH2 0x31A0 PUSH1 0x60 PUSH1 0x0 PUSH1 0x7 GAS STATICCALL AND PUSH1 0x40 PUSH2 0x3160 PUSH1 0x80 DUP2 PUSH1 0x6 GAS STATICCALL DUP2 AND SWAP1 POP PUSH2 0x580 MLOAD PUSH2 0x5A0 MLOAD DUP5 DUP3 DUP4 MULMOD DUP6 PUSH1 0x3 DUP8 DUP4 DUP7 MULMOD ADDMOD DUP7 DUP4 DUP5 MULMOD EQ DUP5 AND SWAP4 POP POP DUP2 PUSH1 0x0 MSTORE DUP1 PUSH1 0x20 MSTORE POP POP PUSH2 0x28A0 MLOAD PUSH1 0x40 MSTORE PUSH1 0x40 PUSH2 0x31A0 PUSH1 0x60 PUSH1 0x0 PUSH1 0x7 GAS STATICCALL AND PUSH1 0x40 PUSH2 0x3160 PUSH1 0x80 DUP2 PUSH1 0x6 GAS STATICCALL DUP2 AND SWAP1 POP PUSH2 0x5C0 MLOAD PUSH2 0x5E0 MLOAD DUP5 DUP3 DUP4 MULMOD DUP6 PUSH1 0x3 DUP8 DUP4 DUP7 MULMOD ADDMOD DUP7 DUP4 DUP5 MULMOD EQ DUP5 AND SWAP4 POP POP DUP2 PUSH1 0x0 MSTORE DUP1 PUSH1 0x20 MSTORE POP POP PUSH2 0x28C0 MLOAD PUSH1 0x40 MSTORE PUSH1 0x40 PUSH2 0x31A0 PUSH1 0x60 PUSH1 0x0 PUSH1 0x7 GAS STATICCALL AND PUSH1 0x40 PUSH2 0x3160 PUSH1 0x80 DUP2 PUSH1 0x6 GAS STATICCALL DUP2 AND SWAP1 POP PUSH2 0x600 MLOAD PUSH2 0x620 MLOAD DUP5 DUP3 DUP4 MULMOD DUP6 PUSH1 0x3 DUP8 DUP4 DUP7 MULMOD ADDMOD DUP7 DUP4 DUP5 MULMOD EQ DUP5 AND SWAP4 POP POP DUP2 PUSH1 0x0 MSTORE DUP1 PUSH1 0x20 MSTORE POP POP PUSH2 0x28E0 MLOAD PUSH1 0x40 MSTORE PUSH1 0x40 PUSH2 0x31A0 PUSH1 0x60 PUSH1 0x0 PUSH1 0x7 GAS STATICCALL AND PUSH1 0x40 PUSH2 0x3160 PUSH1 0x80 DUP2 PUSH1 0x6 GAS STATICCALL DUP2 AND SWAP1 POP PUSH2 0x640 MLOAD PUSH2 0x660 MLOAD DUP5 DUP3 DUP4 MULMOD DUP6 PUSH1 0x3 DUP8 DUP4 DUP7 MULMOD ADDMOD DUP7 DUP4 DUP5 MULMOD EQ DUP5 AND SWAP4 POP POP DUP2 PUSH1 0x0 MSTORE DUP1 PUSH1 0x20 MSTORE POP POP PUSH2 0x2900 MLOAD PUSH1 0x40 MSTORE PUSH1 0x40 PUSH2 0x31A0 PUSH1 0x60 PUSH1 0x0 PUSH1 0x7 GAS STATICCALL AND PUSH1 0x40 PUSH2 0x3160 PUSH1 0x80 DUP2 PUSH1 0x6 GAS STATICCALL DUP2 AND SWAP1 POP PUSH2 0x680 MLOAD PUSH2 0x6A0 MLOAD DUP5 DUP3 DUP4 MULMOD DUP6 PUSH1 0x3 DUP8 DUP4 DUP7 MULMOD ADDMOD DUP7 DUP4 DUP5 MULMOD EQ DUP5 AND SWAP4 POP POP DUP2 PUSH1 0x0 MSTORE DUP1 PUSH1 0x20 MSTORE POP POP PUSH2 0x2920 MLOAD PUSH1 0x40 MSTORE PUSH1 0x40 PUSH2 0x31A0 PUSH1 0x60 PUSH1 0x0 PUSH1 0x7 GAS STATICCALL AND PUSH1 0x40 PUSH2 0x3160 PUSH1 0x80 DUP2 PUSH1 0x6 GAS STATICCALL DUP2 AND SWAP1 POP PUSH2 0x6C0 MLOAD PUSH2 0x6E0 MLOAD DUP5 DUP3 DUP4 MULMOD DUP6 PUSH1 0x3 DUP8 DUP4 DUP7 MULMOD ADDMOD DUP7 DUP4 DUP5 MULMOD EQ DUP5 AND SWAP4 POP POP DUP2 PUSH1 0x0 MSTORE DUP1 PUSH1 0x20 MSTORE POP POP PUSH2 0x2940 MLOAD PUSH1 0x40 MSTORE PUSH1 0x40 PUSH2 0x31A0 PUSH1 0x60 PUSH1 0x0 PUSH1 0x7 GAS STATICCALL AND PUSH1 0x40 PUSH2 0x3160 PUSH1 0x80 DUP2 PUSH1 0x6 GAS STATICCALL DUP2 AND SWAP1 POP PUSH2 0x700 MLOAD PUSH2 0x720 MLOAD DUP5 DUP3 DUP4 MULMOD DUP6 PUSH1 0x3 DUP8 DUP4 DUP7 MULMOD ADDMOD DUP7 DUP4 DUP5 MULMOD EQ DUP5 AND SWAP4 POP POP DUP2 PUSH1 0x0 MSTORE DUP1 PUSH1 0x20 MSTORE POP POP PUSH2 0x2960 MLOAD PUSH1 0x40 MSTORE PUSH1 0x40 PUSH2 0x31A0 PUSH1 0x60 PUSH1 0x0 PUSH1 0x7 GAS STATICCALL AND PUSH1 0x40 PUSH2 0x3160 PUSH1 0x80 DUP2 PUSH1 0x6 GAS STATICCALL DUP2 AND SWAP1 POP PUSH2 0x740 MLOAD PUSH2 0x760 MLOAD DUP5 DUP3 DUP4 MULMOD DUP6 PUSH1 0x3 DUP8 DUP4 DUP7 MULMOD ADDMOD DUP7 DUP4 DUP5 MULMOD EQ DUP5 AND SWAP4 POP POP DUP2 PUSH1 0x0 MSTORE DUP1 PUSH1 0x20 MSTORE POP POP PUSH2 0x2980 MLOAD PUSH1 0x40 MSTORE PUSH1 0x40 PUSH2 0x31A0 PUSH1 0x60 PUSH1 0x0 PUSH1 0x7 GAS STATICCALL AND PUSH1 0x40 PUSH2 0x3160 PUSH1 0x80 DUP2 PUSH1 0x6 GAS STATICCALL DUP2 AND SWAP1 POP PUSH2 0x780 MLOAD PUSH2 0x7A0 MLOAD DUP5 DUP3 DUP4 MULMOD DUP6 PUSH1 0x3 DUP8 DUP4 DUP7 MULMOD ADDMOD DUP7 DUP4 DUP5 MULMOD EQ DUP5 AND SWAP4 POP POP DUP2 PUSH1 0x0 MSTORE DUP1 PUSH1 0x20 MSTORE POP POP DUP2 PUSH2 0x29A0 MLOAD DUP4 PUSH1 0x1 PUSH2 0x2B00 MLOAD ADDMOD MULMOD PUSH1 0x40 MSTORE PUSH1 0x40 PUSH2 0x31A0 PUSH1 0x60 PUSH1 0x0 PUSH1 0x7 GAS STATICCALL AND PUSH1 0x40 PUSH2 0x3160 PUSH1 0x80 DUP2 PUSH1 0x6 GAS STATICCALL DUP2 AND SWAP1 POP PUSH2 0x7C0 MLOAD PUSH2 0x7E0 MLOAD DUP5 DUP3 DUP4 MULMOD DUP6 PUSH1 0x3 DUP8 DUP4 DUP7 MULMOD ADDMOD DUP7 DUP4 DUP5 MULMOD EQ DUP5 AND SWAP4 POP POP DUP2 PUSH1 0x0 MSTORE DUP1 PUSH1 0x20 MSTORE POP POP DUP2 PUSH2 0x29C0 MLOAD DUP4 PUSH1 0x1 PUSH2 0x2B00 MLOAD ADDMOD MULMOD PUSH1 0x40 MSTORE PUSH1 0x40 PUSH2 0x31A0 PUSH1 0x60 PUSH1 0x0 PUSH1 0x7 GAS STATICCALL AND PUSH1 0x40 PUSH2 0x3160 PUSH1 0x80 DUP2 PUSH1 0x6 GAS STATICCALL DUP2 AND SWAP1 POP PUSH2 0x800 MLOAD PUSH2 0x820 MLOAD DUP5 DUP3 DUP4 MULMOD DUP6 PUSH1 0x3 DUP8 DUP4 DUP7 MULMOD ADDMOD DUP7 DUP4 DUP5 MULMOD EQ DUP5 AND SWAP4 POP POP DUP2 PUSH1 0x0 MSTORE DUP1 PUSH1 0x20 MSTORE POP POP DUP2 PUSH2 0x29E0 MLOAD DUP4 PUSH1 0x1 PUSH2 0x2B00 MLOAD ADDMOD MULMOD PUSH1 0x40 MSTORE PUSH1 0x40 PUSH2 0x31A0 PUSH1 0x60 PUSH1 0x0 PUSH1 0x7 GAS STATICCALL AND PUSH1 0x40 PUSH2 0x3160 PUSH1 0x80 DUP2 PUSH1 0x6 GAS STATICCALL DUP2 AND SWAP1 POP PUSH2 0x840 MLOAD PUSH2 0x860 MLOAD DUP5 DUP3 DUP4 MULMOD DUP6 PUSH1 0x3 DUP8 DUP4 DUP7 MULMOD ADDMOD DUP7 DUP4 DUP5 MULMOD EQ DUP5 AND SWAP4 POP POP DUP2 PUSH1 0x0 MSTORE DUP1 PUSH1 0x20 MSTORE POP POP DUP2 PUSH2 0x2A00 MLOAD DUP4 PUSH1 0x1 PUSH2 0x2B00 MLOAD ADDMOD MULMOD PUSH1 0x40 MSTORE PUSH1 0x40 PUSH2 0x31A0 PUSH1 0x60 PUSH1 0x0 PUSH1 0x7 GAS STATICCALL AND PUSH1 0x40 PUSH2 0x3160 PUSH1 0x80 DUP2 PUSH1 0x6 GAS STATICCALL DUP2 AND SWAP1 POP PUSH2 0x880 MLOAD PUSH2 0x8A0 MLOAD DUP5 DUP3 DUP4 MULMOD DUP6 PUSH1 0x3 DUP8 DUP4 DUP7 MULMOD ADDMOD DUP7 DUP4 DUP5 MULMOD EQ DUP5 AND SWAP4 POP POP DUP2 PUSH1 0x0 MSTORE DUP1 PUSH1 0x20 MSTORE POP POP PUSH2 0x2A20 MLOAD PUSH1 0x40 MSTORE PUSH1 0x40 PUSH2 0x31A0 PUSH1 0x60 PUSH1 0x0 PUSH1 0x7 GAS STATICCALL AND PUSH1 0x40 PUSH2 0x3160 PUSH1 0x80 DUP2 PUSH1 0x6 GAS STATICCALL DUP2 AND SWAP1 POP PUSH2 0x8C0 MLOAD PUSH2 0x8E0 MLOAD DUP5 DUP3 DUP4 MULMOD DUP6 PUSH1 0x3 DUP8 DUP4 DUP7 MULMOD ADDMOD DUP7 DUP4 DUP5 MULMOD EQ DUP5 AND SWAP4 POP POP DUP2 PUSH1 0x0 MSTORE DUP1 PUSH1 0x20 MSTORE POP POP PUSH2 0x2A40 MLOAD PUSH1 0x40 MSTORE PUSH1 0x40 PUSH2 0x31A0 PUSH1 0x60 PUSH1 0x0 PUSH1 0x7 GAS STATICCALL AND PUSH1 0x40 PUSH2 0x3160 PUSH1 0x80 DUP2 PUSH1 0x6 GAS STATICCALL DUP2 AND SWAP1 POP PUSH2 0x900 MLOAD PUSH2 0x920 MLOAD DUP5 DUP3 DUP4 MULMOD DUP6 PUSH1 0x3 DUP8 DUP4 DUP7 MULMOD ADDMOD DUP7 DUP4 DUP5 MULMOD EQ DUP5 AND SWAP4 POP POP DUP2 PUSH1 0x0 MSTORE DUP1 PUSH1 0x20 MSTORE POP POP PUSH2 0x2A60 MLOAD PUSH1 0x40 MSTORE PUSH1 0x40 PUSH2 0x31A0 PUSH1 0x60 PUSH1 0x0 PUSH1 0x7 GAS STATICCALL AND PUSH1 0x40 PUSH2 0x3160 PUSH1 0x80 DUP2 PUSH1 0x6 GAS STATICCALL DUP2 AND SWAP1 POP PUSH2 0x940 MLOAD PUSH2 0x960 MLOAD DUP5 DUP3 DUP4 MULMOD DUP6 PUSH1 0x3 DUP8 DUP4 DUP7 MULMOD ADDMOD DUP7 DUP4 DUP5 MULMOD EQ DUP5 AND SWAP4 POP POP DUP2 PUSH1 0x0 MSTORE DUP1 PUSH1 0x20 MSTORE POP POP PUSH2 0x2A80 MLOAD PUSH1 0x40 MSTORE PUSH1 0x40 PUSH2 0x31A0 PUSH1 0x60 PUSH1 0x0 PUSH1 0x7 GAS STATICCALL AND PUSH1 0x40 PUSH2 0x3160 PUSH1 0x80 DUP2 PUSH1 0x6 GAS STATICCALL DUP2 AND SWAP1 POP PUSH2 0x980 MLOAD PUSH2 0x9A0 MLOAD DUP5 DUP3 DUP4 MULMOD DUP6 PUSH1 0x3 DUP8 DUP4 DUP7 MULMOD ADDMOD DUP7 DUP4 DUP5 MULMOD EQ DUP5 AND SWAP4 POP POP DUP2 PUSH1 0x0 MSTORE DUP1 PUSH1 0x20 MSTORE POP POP PUSH2 0x2AA0 MLOAD PUSH1 0x40 MSTORE PUSH1 0x40 PUSH2 0x31A0 PUSH1 0x60 PUSH1 0x0 PUSH1 0x7 GAS STATICCALL AND PUSH1 0x40 PUSH2 0x3160 PUSH1 0x80 DUP2 PUSH1 0x6 GAS STATICCALL DUP2 AND SWAP1 POP DUP2 DUP3 PUSH2 0x1600 MLOAD DUP5 PUSH2 0x2B00 MLOAD PUSH2 0x19E0 MLOAD MULMOD ADDMOD PUSH2 0x2700 MLOAD MULMOD DUP3 DUP4 DUP5 PUSH2 0x1620 MLOAD DUP7 PUSH2 0x2B00 MLOAD PUSH2 0x2000 MLOAD MULMOD ADDMOD PUSH2 0x2720 MLOAD MULMOD DUP3 ADDMOD SWAP1 POP DUP3 DUP4 DUP5 PUSH2 0x1640 MLOAD DUP7 PUSH2 0x2B00 MLOAD PUSH2 0x2020 MLOAD MULMOD ADDMOD PUSH2 0x2740 MLOAD MULMOD DUP3 ADDMOD SWAP1 POP DUP3 DUP4 DUP5 PUSH2 0x1660 MLOAD DUP7 PUSH2 0x2B00 MLOAD PUSH2 0x2040 MLOAD MULMOD ADDMOD PUSH2 0x2760 MLOAD MULMOD DUP3 ADDMOD SWAP1 POP DUP3 DUP4 DUP5 PUSH2 0x1680 MLOAD DUP7 PUSH2 0x2B00 MLOAD PUSH2 0x2060 MLOAD MULMOD ADDMOD PUSH2 0x2780 MLOAD MULMOD DUP3 ADDMOD SWAP1 POP DUP3 DUP4 DUP5 PUSH2 0x16A0 MLOAD DUP7 PUSH2 0x2B00 MLOAD PUSH2 0x2080 MLOAD MULMOD ADDMOD PUSH2 0x27A0 MLOAD MULMOD DUP3 ADDMOD SWAP1 POP DUP3 DUP4 DUP5 PUSH2 0x16C0 MLOAD DUP7 PUSH2 0x2B00 MLOAD PUSH2 0x20A0 MLOAD MULMOD ADDMOD PUSH2 0x27C0 MLOAD MULMOD DUP3 ADDMOD SWAP1 POP DUP3 DUP4 PUSH2 0x16E0 MLOAD PUSH2 0x27E0 MLOAD MULMOD DUP3 ADDMOD SWAP1 POP DUP3 DUP4 PUSH2 0x1700 MLOAD PUSH2 0x2800 MLOAD MULMOD DUP3 ADDMOD SWAP1 POP DUP3 DUP4 PUSH2 0x1720 MLOAD PUSH2 0x2820 MLOAD MULMOD DUP3 ADDMOD SWAP1 POP DUP3 DUP4 PUSH2 0x1740 MLOAD PUSH2 0x2840 MLOAD MULMOD DUP3 ADDMOD SWAP1 POP DUP3 DUP4 PUSH2 0x1760 MLOAD PUSH2 0x2860 MLOAD MULMOD DUP3 ADDMOD SWAP1 POP DUP3 DUP4 PUSH2 0x1780 MLOAD PUSH2 0x2880 MLOAD MULMOD DUP3 ADDMOD SWAP1 POP DUP3 DUP4 PUSH2 0x17A0 MLOAD PUSH2 0x28A0 MLOAD MULMOD DUP3 ADDMOD SWAP1 POP DUP3 DUP4 PUSH2 0x17C0 MLOAD PUSH2 0x28C0 MLOAD MULMOD DUP3 ADDMOD SWAP1 POP DUP3 DUP4 PUSH2 0x17E0 MLOAD PUSH2 0x28E0 MLOAD MULMOD DUP3 ADDMOD SWAP1 POP DUP3 DUP4 PUSH2 0x1800 MLOAD PUSH2 0x2900 MLOAD MULMOD DUP3 ADDMOD SWAP1 POP DUP3 DUP4 PUSH2 0x1960 MLOAD PUSH2 0x2920 MLOAD MULMOD DUP3 ADDMOD SWAP1 POP DUP3 DUP4 PUSH2 0x1980 MLOAD PUSH2 0x2940 MLOAD MULMOD DUP3 ADDMOD SWAP1 POP DUP3 DUP4 PUSH2 0x19A0 MLOAD PUSH2 0x2960 MLOAD MULMOD DUP3 ADDMOD SWAP1 POP DUP3 DUP4 PUSH2 0x19C0 MLOAD PUSH2 0x2980 MLOAD MULMOD DUP3 ADDMOD SWAP1 POP DUP3 DUP4 DUP5 PUSH2 0x1840 MLOAD DUP7 PUSH2 0x2B00 MLOAD PUSH2 0x20C0 MLOAD MULMOD ADDMOD PUSH2 0x29A0 MLOAD MULMOD DUP3 ADDMOD SWAP1 POP DUP3 DUP4 DUP5 PUSH2 0x1860 MLOAD DUP7 PUSH2 0x2B00 MLOAD PUSH2 0x20E0 MLOAD MULMOD ADDMOD PUSH2 0x29C0 MLOAD MULMOD DUP3 ADDMOD SWAP1 POP DUP3 DUP4 DUP5 PUSH2 0x1880 MLOAD DUP7 PUSH2 0x2B00 MLOAD PUSH2 0x2100 MLOAD MULMOD ADDMOD PUSH2 0x29E0 MLOAD MULMOD DUP3 ADDMOD SWAP1 POP DUP3 DUP4 DUP5 PUSH2 0x18A0 MLOAD DUP7 PUSH2 0x2B00 MLOAD PUSH2 0x2120 MLOAD MULMOD ADDMOD PUSH2 0x2A00 MLOAD MULMOD DUP3 ADDMOD SWAP1 POP DUP3 DUP4 PUSH2 0x18C0 MLOAD PUSH2 0x2A20 MLOAD MULMOD DUP3 ADDMOD SWAP1 POP DUP3 DUP4 PUSH2 0x18E0 MLOAD PUSH2 0x2A40 MLOAD MULMOD DUP3 ADDMOD SWAP1 POP DUP3 DUP4 PUSH2 0x1900 MLOAD PUSH2 0x2A60 MLOAD MULMOD DUP3 ADDMOD SWAP1 POP DUP3 DUP4 PUSH2 0x1920 MLOAD PUSH2 0x2A80 MLOAD MULMOD DUP3 ADDMOD SWAP1 POP DUP3 DUP4 PUSH2 0x1940 MLOAD PUSH2 0x2AA0 MLOAD MULMOD DUP3 ADDMOD SWAP1 POP DUP3 PUSH2 0x3760 MLOAD DUP3 ADDMOD SWAP1 POP PUSH1 0x1 PUSH1 0x0 MSTORE PUSH1 0x2 PUSH1 0x20 MSTORE DUP1 DUP4 SUB PUSH1 0x40 MSTORE POP PUSH1 0x40 PUSH2 0x31A0 PUSH1 0x60 PUSH1 0x0 PUSH1 0x7 GAS STATICCALL AND PUSH1 0x40 PUSH2 0x3160 PUSH1 0x80 DUP2 PUSH1 0x6 GAS STATICCALL AND PUSH2 0x3360 DUP2 SWAP1 MSTORE PUSH2 0x2B00 MLOAD PUSH2 0x26C0 MLOAD PUSH2 0x2300 MLOAD PUSH2 0x2320 MLOAD DUP7 DUP3 DUP1 MULMOD DUP8 PUSH1 0x3 DUP10 DUP4 DUP7 MULMOD ADDMOD DUP9 DUP4 DUP5 MULMOD EQ SWAP6 POP POP DUP2 PUSH1 0x0 MSTORE DUP1 PUSH1 0x20 MSTORE POP POP DUP1 PUSH1 0x40 MSTORE PUSH1 0x40 PUSH2 0x31A0 PUSH1 0x60 PUSH1 0x0 PUSH1 0x7 GAS STATICCALL DUP4 AND SWAP3 POP PUSH1 0x40 PUSH2 0x3160 PUSH1 0x80 PUSH2 0x3160 PUSH1 0x6 GAS STATICCALL DUP4 AND SWAP3 POP PUSH2 0x2340 MLOAD PUSH2 0x2360 MLOAD DUP7 DUP3 DUP4 MULMOD DUP8 PUSH1 0x3 DUP10 DUP4 DUP7 MULMOD ADDMOD DUP9 DUP4 DUP5 MULMOD EQ DUP7 AND SWAP6 POP POP DUP2 PUSH1 0x0 MSTORE DUP1 PUSH1 0x20 MSTORE POP POP DUP4 PUSH2 0x3C0 MLOAD DUP6 DUP4 DUP6 MULMOD MULMOD PUSH1 0x40 MSTORE POP PUSH1 0x40 PUSH2 0x31A0 PUSH1 0x60 PUSH1 0x0 PUSH1 0x7 GAS STATICCALL DUP3 AND SWAP2 POP PUSH1 0x40 PUSH2 0x3220 PUSH1 0x80 PUSH2 0x3160 PUSH1 0x6 GAS STATICCALL DUP3 AND SWAP2 POP PUSH2 0x2300 MLOAD PUSH1 0x0 MSTORE PUSH2 0x2320 MLOAD PUSH1 0x20 MSTORE PUSH2 0x2340 MLOAD PUSH1 0x40 MSTORE PUSH2 0x2360 MLOAD PUSH1 0x60 MSTORE DUP1 PUSH1 0x80 MSTORE PUSH1 0x40 DUP1 PUSH1 0x60 PUSH1 0x40 PUSH1 0x7 GAS STATICCALL DUP3 AND SWAP2 POP PUSH1 0x40 PUSH2 0x31E0 PUSH1 0x80 PUSH1 0x0 PUSH1 0x6 GAS STATICCALL DUP3 AND SWAP2 POP PUSH2 0x3200 MLOAD DUP5 SUB PUSH2 0x3200 MSTORE PUSH2 0x9C0 MLOAD ISZERO PUSH2 0x2B82 JUMPI PUSH2 0x3500 MLOAD PUSH2 0x3520 MLOAD DUP6 DUP3 DUP4 MULMOD DUP7 PUSH1 0x3 DUP9 DUP4 DUP7 MULMOD ADDMOD DUP8 DUP4 DUP5 MULMOD EQ DUP6 AND SWAP5 POP POP DUP2 PUSH1 0x0 MSTORE DUP1 PUSH1 0x20 MSTORE POP POP DUP3 DUP2 DUP3 MULMOD PUSH1 0x40 MSTORE PUSH1 0x40 PUSH1 0x60 DUP1 PUSH1 0x0 PUSH1 0x7 GAS STATICCALL DUP3 AND SWAP2 POP PUSH2 0x3540 MLOAD PUSH2 0x3560 MLOAD DUP6 DUP3 DUP4 MULMOD DUP7 PUSH1 0x3 DUP9 DUP4 DUP7 MULMOD ADDMOD DUP8 DUP4 DUP5 MULMOD EQ DUP6 AND SWAP5 POP POP DUP2 PUSH1 0x0 MSTORE DUP1 PUSH1 0x20 MSTORE POP POP PUSH1 0x40 PUSH1 0x0 PUSH1 0x60 PUSH1 0x0 PUSH1 0x7 GAS STATICCALL DUP3 AND SWAP2 POP PUSH2 0x3220 MLOAD PUSH1 0xA0 MSTORE PUSH2 0x3240 MLOAD PUSH1 0xC0 MSTORE PUSH1 0x40 PUSH2 0x3220 PUSH1 0x80 PUSH1 0x60 PUSH1 0x6 GAS STATICCALL DUP3 AND SWAP2 POP PUSH2 0x31E0 MLOAD PUSH1 0x40 MSTORE PUSH2 0x3200 MLOAD PUSH1 0x60 MSTORE PUSH1 0x40 PUSH2 0x31E0 PUSH1 0x80 PUSH1 0x0 PUSH1 0x6 GAS STATICCALL DUP3 AND SWAP2 POP JUMPDEST POP DUP1 PUSH2 0x2BB2 JUMPI PUSH32 0xF755F36900000000000000000000000000000000000000000000000000000000 PUSH1 0x0 MSTORE PUSH1 0x4 PUSH1 0x0 REVERT JUMPDEST DUP1 PUSH2 0x3380 MSTORE PUSH2 0x3220 MLOAD PUSH1 0x0 MSTORE PUSH2 0x3240 MLOAD PUSH1 0x20 MSTORE PUSH32 0x198E9393920D483A7260BFB731FB5D25F1AA493335A9E71297E485B7AEF312C2 PUSH1 0x40 MSTORE PUSH32 0x1800DEEF121F1E76426A00665E5C4479674322D4F75EDADD46DEBD5CD992F6ED PUSH1 0x60 MSTORE PUSH32 0x90689D0585FF075EC9E99AD690C3395BC4B313370B38EF355ACDADCD122975B PUSH1 0x80 MSTORE PUSH32 0x12C85EA5DB8C6DEB4AAB71808DCB408FE3D1E7690C43D37B4CE6CC0166FA7DAA PUSH1 0xA0 MSTORE PUSH2 0x31E0 MLOAD PUSH1 0xC0 MSTORE PUSH2 0x3200 MLOAD PUSH1 0xE0 MSTORE PUSH2 0xA00 MLOAD PUSH2 0x100 MSTORE PUSH2 0xA20 MLOAD PUSH2 0x120 MSTORE PUSH2 0xA40 MLOAD PUSH2 0x140 MSTORE PUSH2 0xA60 MLOAD PUSH2 0x160 MSTORE PUSH1 0x20 PUSH1 0x0 PUSH2 0x180 PUSH1 0x0 PUSH1 0x8 GAS STATICCALL SWAP1 POP DUP1 PUSH2 0x33A0 MSTORE PUSH1 0x0 MLOAD PUSH2 0x33C0 MSTORE POP POP POP PUSH2 0x3360 MLOAD PUSH2 0x3380 MLOAD PUSH2 0x33C0 MLOAD PUSH2 0x33A0 MLOAD AND AND AND PUSH2 0x2CE2 JUMPI PUSH32 0x711FCEC00000000000000000000000000000000000000000000000000000000 PUSH1 0x0 MSTORE PUSH1 0x4 PUSH1 0x0 REVERT JUMPDEST PUSH1 0x1 PUSH1 0x0 MSTORE PUSH1 0x20 PUSH1 0x0 RETURN JUMPDEST PUSH1 0x0 DUP1 PUSH1 0x0 DUP1 PUSH1 0x40 DUP6 DUP8 SUB SLT ISZERO PUSH2 0x2D03 JUMPI PUSH1 0x0 DUP1 REVERT JUMPDEST DUP5 CALLDATALOAD PUSH8 0xFFFFFFFFFFFFFFFF DUP1 DUP3 GT ISZERO PUSH2 0x2D1B JUMPI PUSH1 0x0 DUP1 REVERT JUMPDEST DUP2 DUP8 ADD SWAP2 POP DUP8 PUSH1 0x1F DUP4 ADD SLT PUSH2 0x2D2F JUMPI PUSH1 0x0 DUP1 REVERT JUMPDEST DUP2 CALLDATALOAD DUP2 DUP2 GT ISZERO PUSH2 0x2D3E JUMPI PUSH1 0x0 DUP1 REVERT JUMPDEST DUP9 PUSH1 0x20 DUP3 DUP6 ADD ADD GT ISZERO PUSH2 0x2D50 JUMPI PUSH1 0x0 DUP1 REVERT JUMPDEST PUSH1 0x20 SWAP3 DUP4 ADD SWAP7 POP SWAP5 POP SWAP1 DUP7 ADD CALLDATALOAD SWAP1 DUP1 DUP3 GT ISZERO PUSH2 0x2D6B JUMPI PUSH1 0x0 DUP1 REVERT JUMPDEST DUP2 DUP8 ADD SWAP2 POP DUP8 PUSH1 0x1F DUP4 ADD SLT PUSH2 0x2D7F JUMPI PUSH1 0x0 DUP1 REVERT JUMPDEST DUP2 CALLDATALOAD DUP2 DUP2 GT ISZERO PUSH2 0x2D8E JUMPI PUSH1 0x0 DUP1 REVERT JUMPDEST DUP9 PUSH1 0x20 DUP3 PUSH1 0x5 SHL DUP6 ADD ADD GT ISZERO PUSH2 0x2DA3 JUMPI PUSH1 0x0 DUP1 REVERT JUMPDEST SWAP6 SWAP9 SWAP5 SWAP8 POP POP PUSH1 0x20 ADD SWAP5 POP POP POP JUMP INVALID LOG2 PUSH5 0x6970667358 0x22 SLT KECCAK256 0xC8 0xD9 0x2C 0xB1 0xCC BALANCE MULMOD 0xF7 0xAC 0xC4 DUP12 PUSH28 0x20847C6567CC59992574456D666B580D9C79D52C64736F6C63430008 SGT STOP CALLER "},"methodIdentifiers":{"getVerificationKeyHash()":"937f6a10","verify(bytes,bytes32[])":"ea50d0e4"}}}}}